:1010000080930220C1A60000DD5F0100ADA60000B4
:10101000ADA60000ADA60000ADA6000000000000D7
:10102000000000000000000000000000ADA700006C
:10103000ADA600000000000091AA0000ADA60000CF
:1010400049AB000049AB000049AB000049AB0000D0
:1010500049AB000049AB000049AB0000392E00004D
:1010600049AB000049AB000049AB000049AB0000B0
:1010700049AB000049AB000049AB000049AB0000A0
:1010800049AB000049AB000049AB000049AB000090
:1010900049AB000049AB000049AB000049AB000080
:1010A00049AB000049AB000049AB000049AB000070
:1010B00049AB000049AB000049AB000049AB000060
:1010C00049AB000049AB000049AB000049AB000050
:1010D00049AB000049AB000049AB000049AB000040
:1010E00049AB000049AB000049AB000049AB000030
:1010F00049AB000049AB000049AB000049AB000020
:1011000081F0004102E000BF83F0004330B54FEAB8
:1011100041044FEA430594EA050F08BF90EA020F25
:101120001FBF54EA000C55EA020C7FEA645C7FEAB8
:10113000655C00F0E2804FEA5454D4EB5555B8BFDB
:101140006D420CDD2C4480EA020281EA030382EA4C
:10115000000083EA010180EA020281EA0303362DDE
:1011600088BF30BD11F0004F4FEA01314FF4801CB1
:101170004CEA113102D0404261EB410113F0004FC3
:101180004FEA03334CEA133302D0524263EB43037A
:1011900094EA050F00F0A780A4F10104D5F1200E18
:1011A0000DDB02FA0EFC22FA05F2801841F1000173
:1011B00003FA0EF2801843FA05F359410EE0A5F147
:1011C00020050EF1200E012A03FA0EFC28BF4CF078
:1011D000020C43FA05F3C01851EBE37101F000452E
:1011E00007D54FF0000EDCF1000C7EEB00006EEB3B
:1011F0000101B1F5801F1BD3B1F5001F0CD34908C5
:101200005FEA30004FEA3C0C04F101044FEA44521B
:1012100012F5800F80F09A80BCF1004F08BF5FEAA2
:10122000500C50F1000041EB045141EA050130BD82
:101230005FEA4C0C404141EB0101013C28BFB1F594
:10124000801FE9D291F0000F04BF01460020B1FADF
:1012500081F308BF2033A3F10B03B3F120020CDAB2
:101260000C3208DD02F1140CC2F10C0201FA0CF090
:1012700021FA02F10CE002F11402D8BFC2F1200CF5
:1012800001FA02F120FA0CFCDCBF41EA0C019040AB
:10129000E41AA2BF01EB0451294330BD6FEA0404F4
:1012A0001F3C1CDA0C340EDC04F11404C4F12002DF
:1012B00020FA04F001FA02F340EA030021FA04F3F1
:1012C00045EA030130BDC4F10C04C4F1200220FA48
:1012D00002F001FA04F340EA0300294630BD21FA86
:1012E00004F0294630BD94F0000F83F4801306BF4C
:1012F00081F480110134013D4EE77FEA645C18BF40
:101300007FEA655C29D094EA050F08BF90EA020FD6
:1013100005D054EA000C04BF1946104630BD91EACE
:10132000030F1EBF0021002030BD5FEA545C05D1D1
:101330004000494128BF41F0004130BD14F5800410
:101340003CBF01F5801130BD01F0004545F0FE4184
:1013500041F470014FF0000030BD7FEA645C1ABFB9
:10136000194610467FEA655C1CBF0B46024650EAF0
:10137000013406BF52EA033591EA030F41F400211C
:1013800030BD00BF90F0000F04BF0021704730B5A2
:101390004FF4806404F132044FF000054FF0000177
:1013A00050E700BF90F0000F04BF0021704730B538
:1013B0004FF4806404F1320410F0004548BF40420D
:1013C0004FF000013EE700BF42004FEAE2014FEA62
:1013D00031014FEA02701FBF12F07F4393F07F4F3D
:1013E00081F06051704732F07F4208BF704793F040
:1013F0007F4F04BF41F40021704730B54FF4607453
:1014000001F0004521F000411CE700BF50EA010255
:1014100008BF704730B54FF000050AE050EA0102FE
:1014200008BF704730B511F0004502D5404261EB6E
:1014300041014FF4806404F132045FEA915C3FF4AF
:10144000D8AE4FF003025FEADC0C18BF03325FEA4C
:10145000DC0C18BF033202EBDC02C2F1200300FAFD
:1014600003FC20FA02F001FA03FE40EA0E0021FA22
:1014700002F11444BDE600BF7BB972B90029BEBFBA
:1014800000204FF0004106E008BF00281CBF6FF0AD
:1014900000414FF0FF3000F057B8ADF1080C6DE996
:1014A00004CE002909DB002B1ADB00F069F8DDF817
:1014B00004E0DDE9022304B07047404261EB4101E2
:1014C000002B1BDB00F05CF8DDF804E0DDE9022313
:1014D00004B0404261EB4101524263EB4303704769
:1014E000524263EB430300F04BF8DDF804E0DDE922
:1014F000022304B0404261EB41017047524263EB6A
:10150000430300F03DF8DDF804E0DDE9022304B018
:10151000524263EB4303704753B94AB9002908BFED
:1015200000281CBF4FF0FF314FF0FF3000F00CB827
:10153000ADF1080C6DE904CE00F022F8DDF804E00E
:10154000DDE9022304B07047704700BF10F8012B9B
:1015500011F8013B012A28BF9A42F7D0D01A7047F0
:10156000034611F8012B03F8012B002AF9D170472B
:10157000034613F8012B002AFBD1181A01387047D3
:101580002DE9F0478C468E46089E154604461946BE
:10159000002B40F0D080724547D9B2FA82F74FB1A4
:1015A000C7F120030EFA07FC20FA03F3BD4043EA1B
:1015B0000C0CBC404FEA154EA8B2BCFBFEF8230C45
:1015C0000EFB18CC08FB00F943EA0C43994528D9D7
:1015D000EB1808F1FF3204D2994502D9A8F10202B2
:1015E0002B44A3EB0903A4B2B3FBFEFC0EFB1C339C
:1015F0000CFB00F044EA0344A04214D92C190CF16E
:10160000FF3304D2A04202D9ACF102032C44241AC5
:1016100043EA02401EB1FC40002334607360BDE821
:10162000F0874246DDE76346F1E7002A79D0B2FA57
:1016300082F3002B3FD01946C1F1200302FA01F5D5
:101640002EFA03F20EFA01FE20FA03F343EA0E0328
:101650004FEA154E00FA01F4B2FBFEFCAFB20EFBEE
:101660001C201A0C0CFB07F842EA004290455AD99C
:10167000AA180CF1FF3004D2904502D9ACF1020057
:101680002A44A2EB08029BB2B2FBFEFC0EFB1C221A
:101690000CFB07F743EA02439F4246D9EB180CF1D3
:1016A000FF3204D29F4202D9ACF102022B44DB1B71
:1016B00042EA004202E0AEEB020301224FEA154E7D
:1016C000AFB2B3FBFEFC200C0EFB1C330CFB07F887
:1016D00040EA034398452AD9EB180CF1FF3004D2B5
:1016E000984502D9ACF102002B44A3EB0803A4B245
:1016F000B3FBFEFC0EFB1C330CFB07F744EA034470
:10170000A74216D92C190CF1FF3304D2A74202D9F3
:10171000ACF102032C44E41B43EA00400F4611469F
:1017200078E71F2188E76046ABE76246BFE760467F
:10173000DBE76346EFE7734506D916B90021084693
:101740006DE7C6E9000EF9E7B3FA83F787B9734589
:1017500001D3824207D8841A6EEB030301209C4612
:101760001EB900215BE73846FAE7C6E9004CF8E706
:10177000C7F1200CBB4022FA0CF51D4320FA0CF1F6
:101780002EFA0CF30EFA07FE41EA0E014FEA154954
:1017900000FA07F4B3FBF9F81FFA85FE09FB1830CD
:1017A0000B0C08FB0EFA43EA00439A4502FA07F2D3
:1017B00040D9EB1808F1FF3004D29A4502D9A8F1BC
:1017C00002002B44A3EB0A0389B2B3FBF9F809FB2F
:1017D000183308FB0EFE41EA03418E452CD96918E7
:1017E00008F1FF3304D28E4502D9A8F1020329443F
:1017F00043EA0040A0FB0298A1EB0E014145CE4612
:10180000434602D306D14C4504D2B9EB020E68EB35
:1018100005030138002EA4D0B4EB0E0261EB0301E6
:1018200001FA0CFC22FA07F34CEA0303F940C6E97B
:10183000003196E74046C5E74346D9E7000000007F
:101840002DE9F047064688B00F46904617F0DEFEB9
:101850004FF47A73A0FB034503FB0155E40B012F02
:1018600044EA45444FEAD53507D1294922462B465B
:10187000304613F035FB002012E0D8F804702548FC
:101880003946FFF763FE70B123483946FFF75EFE25
:1018900048B1304621493A4613F03EFB6FF0040050
:1018A00008B0BDE8F0872046294617A3D3E90023F6
:1018B000FFF7E2FD05460C4610461946184A00237C
:1018C000FFF7DAFD80460F46104619464EF66022B5
:1018D0000023FFF7D1FD82468946104619464FF492
:1018E0007A720023FFF7C8FDCDE902A9CDE90623EE
:1018F000CDE90401CDE900870A492A46234630464E
:1019000013F0EEFAB7E700BF005C26050000000008
:1019100022C8010033C8010036C801003FC80100D9
:1019200080EE360057C801002DE9F04F87B005461C
:10193000039117461E46836804AA5B6898470028EF
:1019400031DBDDE9044AA7FB04B307FB0A3758463D
:1019500019A3D3E900233946FFF7DEFDDFF86080E5
:1019600002904FF0FF39D94578EB07031ED3A6FB51
:1019700004B406FB0A4410A3D3E9002321465846C9
:10198000FFF7CAFDD94578EB040403460ED302994C
:10199000AA6899420DD3BDF84010009114682846FA
:1019A000DDE90221A04707B0BDE8F08F6FF08500A8
:1019B000F9E76FF01500F6E700CA9A3B0000000057
:1019C000FFC99A3BF8B53B4C236803F00703022B91
:1019D00000AF14D96D4688B06A46374B0593374B34
:1019E00006934FF40073ADF81C30354B42F8103FAE
:1019F00000234FF4E651204605F070FCAD4600F0A0
:101A000081F8031E0ADA2268510704D02D4A2948BA
:101A1000012112F0BDFF0020BD46F8BD00F098FA8C
:101A200001F0BCFB02F02AFB031E08DA226812F068
:101A3000060F04D0244A1F48022112F0A9FF03F028
:101A400025FC02F0C3FE031E07DA2268520704D009
:101A50001E4A1848012112F09BFF03F0BBFC2368CB
:101A600003F00703022BD6D902F0B8FB184E194A2F
:101A7000022818BF164602F0B7FB044600F04AFCE5
:101A8000154A164B6D468AB0002818BF13466A46A1
:101A90001349CDE90743134B0993134BCDE90516C1
:101AA00042F8103F034800234FF4435105F016FC61
:101AB000AD46B0E724070020EEB701000AB80100E8
:101AC0000300000118B801002AB8010039B801006C
:101AD00044C40100DAB70100E3B70100E1B7010037
:101AE0004AB801000002020405000002052804D8DB
:101AF000034B03EBC00011F0E6BE6FF0150070471A
:101B0000C0A8010010B529484FF4B012062111F009
:101B1000EEFE044650B1264803685B0704D0254A10
:101B20002346012112F034FF204610BD22484FF415
:101B3000B012042111F0DBFE044630B11C480368EA
:101B40005907F1D01D4A2346EBE71D484FF4803278
:101B5000042111F0CCFE044630B1154803685A0741
:101B6000E2D0184A2346DCE717484FF480320821B8
:101B700011F0BDFE044630B10D4803685B07D3D0B9
:101B8000124A2346CDE712484FF48032092111F062
:101B90006AFE002808DB01210420FFF7A7FF0121CE
:101BA0000520FFF7A3FFBFE70446BDE7C0A801007B
:101BB000D406002069B80100A0A801007BB801008C
:101BC00080A8010091B8010040A80100A2B801005E
:101BD000BC9E0100052808B509D8064B03EBC000E0
:101BE00011F05CFE0028D4BF0020012008BD0020B9
:101BF000FCE700BFC0A80100F8B50D4E0446002563
:101C00003746AC4203D00021304611F05CFE01356E
:101C1000042D06F10806F4D1E3B2032B06D807EB36
:101C2000C4000121BDE8F84011F04DBE0020F8BD10
:101C3000A0A80100024B00F00F00185C704700BF25
:101C40006DE70100F8B500240A4E2546012730460D
:101C500011F024FE0028C8BF07FA04F304F10104C0
:101C6000C8BF1D43042C06F10806F0D1024B585D95
:101C7000F8BD00BF80A801006DE7010008B5044869
:101C800011F00CFE0028D4BF0020012008BD00BFC9
:101C900038A8010008B5084817F099F850B9074866
:101CA00003685B0703D0064A012112F068FE6FF05B
:101CB000120008BD0020FCE73C9F0100E406002064
:101CC000BAB80100F0B5032887B006460C4633D8F1
:101CD0001B4BB1F5807F1A5C28BF4FF48074230A38
:101CE00043EA021302278DF8083002AB8DF8094051
:101CF000039304978DF8147012489DF8143082688D
:101D00003B438DF8143095682C23012203A9A84782
:101D1000054628B90C4B23F81640284607B0F0BDFD
:101D20000A48036813F0060FF7D0094A00953346B6
:101D3000394612F037FEF0E76FF01505EDE700BF0A
:101D40007DE701003C9F0100C4470220E40600201B
:101D5000CCB80100104A9FED117ADFED116A9FEDBA
:101D6000116A0023F2EC017AF0EEE75AF4EE475ADA
:101D7000F1EE10FA0ED8F4EEE67AF1EE10FA09D987
:101D8000F4EEC67AF1EE10FA04DC0133052BE9D14A
:101D90000120704700207047AC1D0020FFFF7F7FAF
:101DA0006F12833A0050C3479FED097A00F1140384
:101DB000F0EC017AF0EEE77AF4EE477AF1EE10FA01
:101DC00003D89842F4D1012070470020704700BF2B
:101DD000FFFF7F7F30B413460446044882681568CD
:101DE0000A46AC46214630BC604700BF7C9F0100DC
:101DF00002460B4601480EF033BB00BFD00700205F
:101E000001480EF09FBB00BFD007002038B5044644
:101E10000F4816F0DCFFB0B19C2221464FF4007051
:101E2000FFF7D8FF00280DDB22680A4B9A4207D142
:101E30009421201DD4F8985015F0E0FB854205D080
:101E40006FF04C0038BD6FF01200FBE70020F9E79F
:101E50007C9F010050504B322DE9F34105460E4660
:101E6000174698460D48826854680A462946A04796
:101E7000044640B942463146384617F0ACFC20468D
:101E800002B0BDE8F081064803685B07F7D0054A59
:101E900000942B46012112F085FDF0E77C9F0100A4
:101EA00004070020EEB8010010B5214C4FF0FF30C0
:101EB0004FF0FF31FFF79CFF6A22002104F1280058
:101EC00017F0B0FC1B4B23601B4B63601B4BA360E4
:101ED0001B4BE3601B4B23614FF07E536361A36197
:101EE000E361236263626366A366E36623676367F5
:101EF000A367E367C4F88030C4F88430C4F888303E
:101F0000802240F6B833A4F88C30A4F89220012344
:101F10004FF0805284F89030126EA4F88E200A4A56
:101F200000211170094A1370BDE81040FFF768BF27
:101F3000AC1D00207BF48044CD4CCB426666224130
:101F4000D7A3703FC520303DD7470220D647022097
:101F50002DE9F04FC5B000AFB248B34D16F037FFD2
:101F600088B92B685A0704D0B04A0121284612F0DC
:101F700006FDFFF799FF6FF01204204607F58A77F8
:101F8000BD46BDE8F08F07F10C0640F20112314664
:101F90000020FFF71FFF041E0BDA2B685B0705D03C
:101FA000A34A23460121284612F0F2FCFFF77CFFEA
:101FB000E3E74FF0FF304FF0FF31FFF719FFB64670
:101FC000BEE80F009B4CA446ACE80F00DEF80030E2
:101FD000CCF8003007F1200EBEE80F0004F1140C1D
:101FE000ACE80F00DEF80030CCF8003007F1340E1A
:101FF000BEE80F0004F1280CACE80F00DEF800305A
:10200000CCF8003007F1480EBEE80F0004F13C0C9C
:10201000ACE80F00DEF80030CCF8003007F15C0EC1
:10202000BEE80F0004F1500CACE80F00DEF8003001
:10203000CCF8003007F1700EBEE80F0004F1640C1C
:10204000ACE80F00DEF80030CCF8003007F18C0E61
:10205000BEE80F0004F1780CACE80F00DEF80030A9
:10206000CCF80030B6F8788096F8FB9096F8FCB083
:10207000B6F8FFA0A4F88C804FF0805384F89090BD
:1020800084F891B0A4F892A01B6E6B48A4F88E302F
:102090009422214617F09FFBFFF75CFE2B68674EEA
:1020A0007B60002800F0E280012304F1140033700B
:1020B000FFF77AFE48B9DFF8A4C1BCE80F0004F1CD
:1020C00014060FC6DCF8003033605D48FFF76CFE85
:1020D00040B9DFF88CC15A4EBCE80F000FC6DCF8DF
:1020E000003033605748FFF75FFE014618B9554886
:1020F000142217F097FB5448FFF756FE014618B913
:102100005148142217F08EFB5048FFF74DFE014650
:1021100018B94E48142217F085FB4D48FFF744FECE
:1021200040B9DFF840C14A4EBCE80F000FC6DCF8EA
:1021300000303360464A05234FF07E51B2EE047AF8
:10214000F2EC017AF5EEC07AF1EE10FA04D9F4EE71
:10215000C77AF1EE10FA01DD42F8041C013BEFD121
:10216000A8F5487841F268031FFA88F8984588BFB7
:1021700040F6B83309F1FF3988BFA4F88C30B9F1C3
:10218000010F84BF012384F89030BBF1010F84BF9D
:10219000002384F89130BAF5807F2E4B8CBF01224A
:1021A00000221A700CD97B6813F0060F05D02A4A5A
:1021B0001D485346022112F0EBFB8023A4F8923015
:1021C0002B6803F00703022B28D92068FFF7FCF8DF
:1021D000804620698946FFF7F7F8B4F88CC094F878
:1021E0009060B4F8925094F891306C468EB06A4684
:1021F000DFF874E0CDF814E0CDE90C530A23CDE903
:102200000689CDE90801CDE90AC642F8103F064823
:10221000002345F2C00105F061F8A546FFF7F0FD87
:102220000024AAE67C9F0100040700200CB90100ED
:102230001DB90100AC1D0020181D0020D747022049
:10224000101E0020D41D0020E81D0020FC1D0020D1
:10225000241E0020D647022034B9010004A9010041
:1022600054A9010068A9010067B901007B6813F057
:10227000060F04D01D4A0221284612F080FB6A2274
:102280001B48002117F0CEFA1A4B23601A4B6360EB
:102290001A4BA3601A4BE3601A4B23614FF07E5335
:1022A0006361A361E361236263626366A366E366BD
:1022B00023676367A367E367C4F88030C4F884309A
:1022C000C4F88830802240F6B833A4F88C30A4F8E3
:1022D000922001234FF0805284F89030126EA4F8BF
:1022E0008E2000223270084A137097E7A8B90100C7
:1022F000D41D00207BF48044CD4CCB426666224145
:10230000D7A3703FC520303DD64702200048704714
:10231000AC1D0020014B1878704700BFD747022042
:10232000014B1878704700BFD647022030B5A7B0E0
:10233000254816F04CFD002842D04FF0FF304FF0FA
:10234000FF31FFF755FD2149214D942201A817F0D7
:1023500042FABDF89030ADF800301E4A02236946BB
:10236000782011F0DDFABDF89030A5F88C300446E5
:1023700008BB142305F178021FA9802011F0D0FAC0
:102380000446C0B9012305F1900225A9FB2011F0F4
:10239000C7FA044678B9BDF89630ADF8003005F1BB
:1023A000920202236946FF2011F0BAFABDF8963076
:1023B000A5F892300446FFF723FD204627B030BD34
:1023C0006FF01204F9E700BF7C9F0100AC1D0020F4
:1023D000181D0020A41D002002484FF48032002365
:1023E0000EF06EBB0000002030B5A9B0124C2046A4
:1023F00016F0EDFCE8B14FF0FF304FF0FF31FFF782
:10240000F7FC0E4B0E490193942202A817F0E3F952
:10241000FFF7F6FC942102A815F0F0F82790A368C6
:1024200001AA5D684FF400719C232046A84729B09B
:1024300030BD6FF01200FAE77C9F010050504B3224
:10244000AC1D002070B5A8B001A8FFF7DFFCE8B90B
:102450004FF0FF304FF0FF3120ADFFF7C9FC0FCD3B
:102460000B4E06F178040FC42B682360BDF894303E
:10247000A6F88C309DF8983086F89030BDF89A30E8
:10248000A6F89230FFF7BCFCFFF750FF28B070BDF4
:10249000AC1D00202DE9F04F174CAFB006460D469D
:1024A0004FF0FF304FF0FF31FFF7A2FC214694229E
:1024B00009A817F090F9B4F88E30059394F890308D
:1024C0000493B4F8923094F89170B4F88C9003931C
:1024D000FFF796FC094B0E934FF07E532293084A68
:1024E0003B46294630460FF083FD041E0ADA0020E1
:1024F0002FB0BDE8F08F00BFAC1D00204A1EEC1FBE
:10250000DBB90100AC42F2D209AF4FF0000857F836
:10251000040BFEF759FFA5EB040B06EB040ACDE90B
:102520000001AB4A4346594650460FF061FD002872
:10253000DDDB8345DBD908F10108B8F1050F044460
:10254000E5D10DF1380A4FF000085AF8040BFEF7F8
:102550003BFFA5EB040B3719CDE900019D4A43462B
:10256000594638460FF044FD0028C0DB8345BED9EC
:1025700008F10108B8F1050F0444E6D10DF1880A0D
:102580004FF000085AF8040BFEF71EFFA5EB040BF2
:102590003719CDE90001904A4346594638460FF0B5
:1025A00027FD0028A3DB8345A1D908F10108B8F174
:1025B000050F0444E6D10DF14C0A4FF000085AF81B
:1025C000040BFEF701FFA5EB040B3719CDE9000161
:1025D000824A4346594638460FF00AFD002886DBFA
:1025E000834584D908F10108B8F1050F0444E6D108
:1025F0002F1B7B4A4B46394630190FF0F9FC002857
:10260000FFF675AF87427FF672AF0444A5EB04096D
:10261000059B744A494630190FF0EAFC071EFFF685
:1026200066AFB9457FF663AF2744A5EB0708049B67
:102630006D4A4146F0190FF0DBFC041EFFF657AF60
:10264000A0457FF654AF3C444FF0000918AF57F84F
:10265000040BFEF7B9FEA5EB040806EB040ACDE96E
:102660000001624A4B46414650460FF0C1FC00282B
:10267000FFF63DAF80457FF63AAF09F10109B9F1A8
:10268000050F0444E3D11DAF4FF0000957F8040BC8
:10269000FEF79AFEA5EB040806EB040ACDE900015B
:1026A000534A4B46414650460FF0A2FC0028FFF625
:1026B0001EAF80457FF61BAF09F10109B9F1050F87
:1026C0000444E3D127AF4FF0000957F8040BFEF79D
:1026D0007BFEA5EB040806EB040ACDE90001454AA0
:1026E0004B46414650460FF083FC0028FFF6FFAEF4
:1026F00080457FF6FCAE09F10109B9F1050F0444EC
:10270000E3D12F1B039B3C4A394630190FF070FC74
:102710000028FFF6ECAE87427FF6E9AE044408A934
:1027200007A801F07DFA0798FEF74EFE3719A5EBD2
:102730000408CDE90001314A384641460FF058FC03
:10274000071EFFF6D4AEB8457FF6D1AE0898FEF767
:102750003BFE2744F419A5EB0708CDE90001284A00
:10276000204641460FF044FC041EFFF6C0AEA045D3
:102770007FF6BDAE3C44A5EB0408224B224A4146FD
:1027800030190FF035FC071EFFF6B1AEB8457FF6E5
:10279000AEAE2744A5EB07081C4A01234146F019B9
:1027A0000FF026FC041EFFF6A2AEA0457FF69FAEFA
:1027B0003C442D1B164A294630190FF019FC0028FD
:1027C000FFF695AE85427FF692AE204490E600BFBC
:1027D000EBB90100F7B9010004BA010011BA010018
:1027E0001DBA010026BA01002EBA0100F8B9010095
:1027F00005BA010038BA010045BA01004DBA01001E
:1028000058BA0100A086010064BA010074BA010040
:1028100085BA010073B500220E466946054610F8D8
:10282000013B2BB1A3F13004092C01D9072A41D176
:1028300002F108030DEB03024FF0FF3000234FF0CD
:10284000FF3102F8083CFFF7D3FA2B78002B64D055
:1028500049496846FEF77AFEA8B348496846FEF73C
:1028600075FE90B346496846FEF770FE78B3454959
:102870006846FEF76BFE60B343496846FEF766FEA6
:1028800048B342496846FEF761FE30B34049414CC7
:102890006846FEF75BFE002818BF0024284616F0A5
:1028A000C9FF0546DCB96FF01504FFF7A9FA204609
:1028B00002B070BDA3F14104192C98BF203301F878
:1028C000013B0132AAE7344CE8E7344CE6E7344CEC
:1028D000E4E7344CE2E7344CE0E7344CDEE7002830
:1028E000E1DB0428DFD8002130460FF0ABFBDFED41
:1028F000307AB0EEC07AB4EE677AF1EE10FAD2D840
:10290000254B04EB85059C4285ED000A03D1FFF7BA
:1029100021FA284B18700024C7E727496846FEF7BC
:1029200015FE024638B9014630460FF08DFD1A4BB0
:10293000A3F88C00EFE721496846FEF707FE024640
:1029400038B9014630460FF07FFD134B83F89000F5
:10295000E1E71B496846FEF7F9FD04460028A2D1CD
:102960000246014630460FF06FFD0B4BA3F8920074
:10297000144B1C70CFE700BF1BD701008ABA0100BF
:102980008DBA010058C2010062B801008EBA010080
:1029900090BA0100241E0020AC1D0020C01D0020A4
:1029A000101E0020D41D0020E81D0020FC1D00206A
:1029B000FFFF7F7FD747022093BA0100CED70100E7
:1029C00097BA0100D647022070B504460D46164658
:1029D000064816F0FCF930B1324629462046BDE8DB
:1029E0007040FFF7F7B96FF0120070BD7C9F0100D7
:1029F00030B44FF08052284BD2F830010021082823
:102A0000C3F800152FD0244B002003214FF0FF34D2
:102A1000C3F808430246C3F8F0150146C3F8F805A9
:102A2000130103F1804303F5E0430132082AC3F8A0
:102A30001015C3F81415F3D1174BC3F80011D3F8D0
:102A40000021C3F80411D3F80421C3F80811D3F806
:102A50000821C3F80C11D3F80C21C3F8141130BCB1
:102A6000D3F814317047D2F83421012ACBD0D3F8EF
:102A70004046D3F84406D3F84826C3F8FC1F01218A
:102A8000D3F8FC5FC3F8FC1FC3F84046C3F8440604
:102A9000C3F84826B7E700BF00700040074B00228C
:102AA000C3F84021D3F84021D3F8402502F5007245
:102AB000C3F8402502480DF0CBBD00BF00A0014087
:102AC000AC0800202DE9F04F93B0BD4C0F93C0F33C
:102AD0000E00BC4B119204EB8002400903EB800313
:102AE0000993B94B06925B6810930E91002900F090
:102AF0006F814FF0000B4FF0FF3A043A0B460A92F9
:102B000010465D46DC465C46DE46D0465746564695
:102B100009994FEA5B1251F8222059460BF1200B1C
:102B20009B45D94628BF9946894531D90A99CDE9AF
:102B300001B001EB8909014651F8040F4FEAC21BAD
:102B40005FFA8BFB4BEA506BDA4528BFDA465D45EE
:102B500038BF5D46C0F30A0B5E4528BF5E46DE45C2
:102B600038BFDE46C0F3C22B5F45C0F38A3028BFB2
:102B70005F465C4538BF5C46804528BF804684453B
:102B800038BF844689454FEA5202D5D1DDE901B00C
:102B90009B4500F18000BBD3BEEB0602A4EB07040B
:102BA000ACEB0803A5EB0A05B1B2B8B21FFA88F97D
:102BB0001FFA8AFB039200F02481B2FA82FCCCF166
:102BC000200C5FFA8CF203929446002C00F0DE8019
:102BD000B4FA84F4039AC4F12004E4B2A218029275
:102BE000002B00F0D880B3FA83F3029AC3F12003DC
:102BF000DBB29A180492002D00F009810F9A5081DF
:102C000000206CF30700118164F30F20B5FA85F101
:102C100063F31740C1F12001049BA2F80C90C9B2E4
:102C200061F31F60CB18A2F80EB0106105930E9BE4
:102C3000002B00F0C380069B043B0A93049BDDF845
:102C400028B0DDF84490A3F12002C3F12003CDE9C0
:102C50000736002006920E9A014604468446430930
:102C6000099D55F82350034620309042864628BFE0
:102C700096469E4563D90A9B0B90CDE90CB203EBB7
:102C80008E0E5E46019706E009F104091946B64525
:102C90004FEA55054FD056F8042F0198089FC2F30C
:102CA000C22BABEB000B0398EB010BFA00FBDBB282
:102CB000C2F30A0043EA5263C01BC2F38A32029F86
:102CC000A2EB0802BA404BEA00001043069A049FA8
:102CD000A3EB0A0303FA02FB079A23FA02F2BB40B2
:102CE00003434BEA0202A1F1200003FA00F08A40FC
:102CF0000243C1F1200023FA00F08B401C43059BE6
:102D00000243194442EA0C021F29A1F12003944610
:102D1000BDD91F2BC9F80040A1F1400114464FF066
:102D2000000CB1D9B645C9F80420644609F1080978
:102D30004FEA5505AFD1DDE90CB20B98019F9042E7
:102D40000BF1800B8BD3002952D0119B49F8044B17
:102D5000A9EB0309C9F38F030F9A1B4993821B4BFD
:102D60004A68109819690E9C121A89181961D3E9DA
:102D7000061021449961596941F10001824238BF2E
:102D800002465961DA6113B0BDE8F08F039A0292EE
:102D9000002B7FF428AF002D4AD1029B04930F9A99
:102DA000118100216CF3070164F30F215081A2F817
:102DB0000C90A2F80EB01161029AFAB90023CBE789
:102DC000D42E0020D41E0020001000E0F8090020BE
:102DD0000E9A049213469046924603921646174660
:102DE0000292144611461046914693469446D6E701
:102DF000119BA9EB0303C3F38F03ADE70592029385
:102E000015E7DDF80CC0002C7FF4E2AEBEE76CF3F2
:102E100007050F9A64F30F2563F31745049B11818F
:102E20005081A2F80C90A2F80EB01561059305E749
:102E3000029A0492E2E600BF684620F007018D4640
:102E40002DE9F14F754B7648764D012282B05A64D8
:102E5000D3F84485D3F84035734AA8EB0303B3F5A0
:102E6000C07F34BF1C091724D2F8482550F824101D
:102E7000013140F8241029686C488B4288BF2B60D0
:102E80006B4B19688A4238BF1A606A4B19688A42CC
:102E900088BF1A60684B01225A64684AD3F84435E7
:102EA00011681360026801320260654A0020C2F8AE
:102EB00004015B1AD2F8042100F09C80614ADFF81B
:102EC000A091108851880FFA80FB4FF0A040012B91
:102ED000D0F81055D9F8006009B200F088805A4F38
:102EE0003C68581E04443C60584C2768BB4288BF6D
:102EF0002360B0F5004F00F28A80A3F1020C304647
:102F0000CDE900818444524F524C0CF101064FF43C
:102F100040524FF0010AC0F34918034654F82810F4
:102F200003F01F0E0AFA0EFE21EA0E0E44F828E006
:102F3000C3F30E0E634547F82E2000F10100EAD1DD
:102F4000DDE900812B0E03F00C0305F003001843AC
:102F50000091FEF76FFE07280099C5F3872506D17B
:102F6000DFF800C1DCF800300133CCF80030BBF1F1
:102F7000000F4ADD4FEA9B0240F2FF739A4228BFDE
:102F80001A4600294FEAC0233DDD890840F2FF7050
:102F9000814228BF01468903C6F3491C43EA4563C1
:102FA0001343012054F82C200B43ED0906F01F01B8
:102FB0008D4000FA01F122EA01022A4344F82C2054
:102FC000C6F30E02064447F82230144BC9F80060DD
:102FD000214A9864D3F848351168A3EB08038B4263
:102FE00088BF136002B0BDE8F14F85467047184FA7
:102FF000184CA7E7194A13680133136002B0BDE803
:10300000F14F854670470021C6E70022B9E7A6F5D3
:103010000046304447F6FF7C72E700BF00B0014035
:10302000481E0020A81E002000A00040C81E00204E
:10303000441E0020401E002000A00140AC1E0020C5
:1030400000700040BC1E0020B81E0020B41E0020EE
:10305000D42E0020D41E0020B01E0020C41E00204C
:10306000D01E0020C01E0020F0B5044683B000230F
:103070000F461646ADF80630FFF7BAFC6268454BBE
:10308000454D43EA0223C5F818352178C5F81015D7
:103090000622C5F8142501236A44C5F8F475C5F85D
:1030A0002C26C5F83036C5F800352B60D5F8003130
:1030B0004FF47A744BBB012015F064FED5F8003153
:1030C0001BBB013CF7D1344B01229A60D3F8142189
:1030D0006FF07307002A53D12F4D4FF47A740120FB
:1030E00015F050FED5F81431002B3DD1013CF6D13E
:1030F000294B0022C3F80025002F48D1BDF8063027
:103100001BB20020336003B0F0BD234D0023C5F88F
:1031100000310123D5F800216B60D5F8043147F266
:10312000305473B9012015F02DFED5F8043143B9A0
:10313000013CC8D0012015F025FED5F80431002B44
:10314000F6D0154B0022C3F804210121D3F8040165
:103150009960D3F81471002FBED0C3F81421D3F8AE
:103160001411C3F80025C9E70023C5F81431D5F8B8
:103170001431094B0022C3F80025002FBED006E011
:103180000022C3F81421D3F81411C3F800256FF0FE
:103190007300B8E7000015010070004038B55F49C2
:1031A0005F4BD1F8FC205F4D002442F08072C1F8E3
:1031B000FC205C6019680122114319600720214638
:1031C00007F036FB224601211A2007F031FBFFF7FA
:1031D0000FFC554A554B127843EA0242C5F81825B0
:1031E00006210820524AC5F81005C5F814151278B2
:1031F000052043EA02430122C5F82835C5F8200519
:10320000C5F82415C5F8F445C5F80025C5F81041E2
:10321000D5F81031EA60D5F8103142F21074002B65
:1032200070D1012015F0AEFDD5F81031002B69D119
:10323000013CF6D13F48036813F0060F69D13E4BBD
:10324000384C3E4D01210020C4F800055960D9607A
:10325000D3F8042522F00302C3F80425D3F8082587
:1032600042F00302C3F80825A022C3F81005C3F8F2
:1032700040257022C3F84425D3F800220A43C3F83E
:10328000002203F5A8332E4AC3F81025A2F54552B3
:10329000C3F814252B4AC3F81855C3F81C455160D0
:1032A000D160D2F8044524F003040C43C2F804456D
:1032B000D2F8084544F00304C2F808450832C3F8C0
:1032C0002055C3F82425C2F8FC1F02F6F872D1601D
:1032D000D2F8041521F00301C2F80415D2F808153C
:1032E00041F00301C2F80815C2F81005A2F58732B3
:1032F0001549C3F82855A2F5DC72C3F82C15C3F89C
:103300001C2938BD074B0022C3F81021D3F8103117
:1033100095E70E4A022111F032FB90E700ED00E044
:10332000001000E000700040CF05002000031000F6
:10333000CE0500203007002000A0004004710040AE
:1033400044A1004000A0014040B0014084A9010018
:103350002DE9F047DFF8248268484FF0FF334FF043
:10336000FF320DF07DF898F80030002B40F0BB8064
:1033700003F0FF04FFF73CFB614A624B1278624D99
:10338000624943EA0242C5F818254FF008090622AF
:10339000C5F81095C5F81425097843EA0143C5F826
:1033A000283505215A4BC5F820154FF0020A012691
:1033B000C5F82425C5F8F445C5F82C36C5F830A65F
:1033C000C5F800654FF0FF324FF0FF3351480DF064
:1033D00047F8514B1C60514B1C60514B1C70514BBA
:1033E0001C70514B1C704B480DF0ACF84F4B504AC1
:1033F0001C60504B50481C60504B1C60504B1C6074
:10340000504B1C60504B1C60504B1C60504B4FF09D
:10341000FF311C604F4B1160602221461C6016F08A
:1034200001FA4D484D4F0DF06DF94D4BDE601E60B9
:1034300003F580434FF40072C3F80495FE60C7F8AB
:103440004025C7F84041D7F84021464B4FF4803221
:10345000C7F804234FF08062C3F880211A2007F0D8
:10346000B7F9404B3E608022C5F804A30720C3F89B
:10347000802107F0ADF92E60D5F800314FF47A7451
:10348000C3B9012015F07EFCD5F8003193B9013C99
:10349000F7D1354803685B072BD1072007F0A6F961
:1034A000194B0022C3F8002514480DF04BF86FF0BB
:1034B00073001CE0144A2D492D480023C2F8003146
:1034C000D2F80021012302220424C1F80445C1F8E6
:1034D0000425C1F80435274A0168C2F84015D360B5
:1034E000136088F8003005480DF02CF80020BDE886
:1034F000F087214A012111F042FACEE7A807002007
:10350000CF0500200003100000700040CE05002011
:10351000BC1E00200C080020D01E0020CC1E002065
:10352000D9470220D1050020D0050020C81E002068
:10353000441E0020C41E0020481E0020C01E002083
:10354000B81E0020B41E0020B01E0020AC1E0020BB
:10355000A81E0020401E0020AC08002000A0014052
:1035600000B0014000E100E03007002000F0014021
:103570006001002000A00040A4A90100D84702205B
:1035800070B52B4E2B484FF0FF334FF0FF320CF04D
:1035900067FF3378002B3ED0274B284D284A012463
:1035A0005C600223C2F808450720C2F80835C5F858
:1035B000083307F01BF90023C5F81431D5F814318E
:1035C000AC60D5F814314FF47A744BBB012015F080
:1035D000D9FBD5F814311BBB013CF7D1174A184B66
:1035E000184D0024C2F800450422C3F8082508221B
:1035F000C3F808254FF48033C5F808331A2007F0C4
:10360000F5F81149114A01236B604B601370347057
:103610000F480DF01DF80748BDE870400CF092BF50
:10362000064B0022C3F81421D3F81431D6E700BFAB
:10363000D8470220A807002000A0004000700040EA
:1036400000F0014000A0014000B00140D005002082
:10365000AC080020014B1878704700BFD847022003
:1036600002460B4601480DF027B800BFAC08002009
:103670000B4A0C4B0C49127809681B6802F0FF00DA
:103680005B1A0AB133B17047B3F5007F34BF002035
:1036900001207047054B187880F00100704700BF8B
:1036A000D0050020D01E0020CC1E0020D105002017
:1036B000444B1B78012838BF0120002B7FD12DE916
:1036C000F04F17468FB0404A06AD894602F1040E0E
:1036D0002C4602A94FF0010C4FF0FF3680EA403330
:1036E00083EA534383EA431312F8018B83EA43309E
:1036F00080EA504008F1010A80EA401006FA08F812
:1037000020EA080844F8048BB3FBFAF80AFB1833E4
:103710000CFA03F3013B964541F8043BDED12B4CF8
:103720002B4B0197002105F11002CB460DF1280A21
:103730000DF10809AE4680EA40305EF804CB59F836
:10374000048B80EA504080EA40108CEA000707EAC8
:10375000080787EA0C0772454AF8047BEBD1DDE9DC
:103760000C674FEA86380B9E48EAC6280A9E4FEA45
:10377000511E01F01F0948EA06084FEAD71C01262E
:103780000CFA09FC06FA09F953F82E6048EA476872
:1037900044F8048F013126EA090848EA0C07B1F51C
:1037A000007F43F82E70C1D1019F5A46B9803B4635
:1037B0000020FFF787F900200FB0BDE8F08F6FF011
:1037C0000F007047D847022058AB0100D02E0020D0
:1037D000D41E00202DE9F84F80460E464FF0FF33EF
:1037E0003E48DFF80CB1DFF80CA14FF0FF320CF0CF
:1037F00037FE3B4BDAF800401F78DBF80090A9EB6E
:103800000405B5F5F84FFFB214D93649A9F5F443CC
:103810004A68013B6FF30803121B1A444A608A6826
:10382000CAF8003001328A602F4A01211170A9EBD9
:1038300003051C46B5F5007F2AD34FF400753346C7
:10384000424629462046FFF73DF9DBF800301B1BB6
:10385000B3F5004F29D8244B34601978B5802C4437
:103860000022CAF80040B1711A7057B91D4AF771A9
:1038700013682B44136019480CF064FE0120BDE866
:10388000F88F4C4503BF194B01221A701746EDE71C
:103890002FB1002DD3D1154B1B78002BCFD00F4863
:1038A0000CF050FE0020BDE8F88FDBF800301A1B4A
:1038B000B2F5F84FF3D90B49A3F5F4434A68886889
:1038C000013B6FF308031A44121B4A600130064A99
:1038D00088600121CAF800301170E0E70C08002070
:1038E000D0050020F8090020D9470220D10500208A
:1038F000D01E0020CC1E002008B54FF0FF324FF044
:10390000FF330F480CF0ACFD0E4A0F4B12781868CD
:1039100072B90E4A12686FF308020D491A604B68BB
:103920001B1A13444B600648BDE808400CF00ABE61
:10393000064A084912684FF0010C81F800C0ECE714
:103940000C080020D0050020CC1E0020D01E002036
:10395000F8090020D1050020074B1B7803F0FF0079
:1039600033B1064B064A1B6812689A4201D0002008
:103970007047044B18787047D0050020D01E0020F7
:10398000CC1E0020D105002038B51749A8220446D6
:1039900015F021FF154A164B1568E56001201864E3
:1039A000D3F8403513496362134A144B0868126810
:1039B0001B6823631249134B09681B68C4E90A0298
:1039C0001148124A00681268C4E90D13104B1149DE
:1039D0001B686364C4E90F0204F148006022BDE87B
:1039E000384015F0F8BE00BFF8090020C01E0020C6
:1039F00000A00140C81E0020C41E0020B81E0020E8
:103A0000B41E0020B01E0020A81E0020441E00206E
:103A1000401E0020481E00202DE9F843A2F1A0041A
:103A20001F4643F6E0539C4261D8DFF8D480054638
:103A30008946C8F80020FFF78BFC0646002859D1BC
:103A40004FF47A7303FB05F5B9F1000F36D015F08A
:103A5000DDFD4B014401241A43EAD06363EB01030B
:103A60009B0043EA9473A400241841EB0301CB00AC
:103A700043EA5473C4F3103444EA434400E000BF03
:103A800015F0C4FD4B014FEA401CBCEB000C43EAAF
:103A9000D06363EB01039B004FEA8C02121843EAE8
:103AA0009C7341EB0301C90041EA5271C2F3103229
:103AB00042EA4142121BAA42E1D30DE031464FF4E3
:103AC000004340F2E730E5FB03014FF47A72002334
:103AD000FDF722FD15F0BAFCFFF752FDA023384692
:103AE000C8F80030FFF750FF3046BDE8F8836FF0AC
:103AF0001506F9E7A023C8F800306FF07306F3E766
:103B000060010020072898BF034A03469ABF13703C
:103B100000206FF015007047CF050020014B18788A
:103B2000704700BFCF050020072898BF034A03460F
:103B30009ABF137000206FF015007047CE0500206B
:103B4000014B1878704700BFCE050020024B187853
:103B500080F00100704700BFD84702200248A82229
:103B6000002115F05FBE00BFF8090020024A136A69
:103B700001331362704700BFF80900202DE9F04FB0
:103B8000062883B03CD88846002939D08146924621
:103B90004FF0FF331F484FF0FF320CF061FC1E4B1B
:103BA0001B7803F0FF0B73BB1C4B5C4603EB09193E
:103BB0005F4601AA00214846FFF756FA0BF1010BB8
:103BC0000646A0B9019D2C1947EBE577D845F0D101
:103BD00010480CF0B7FC4246334620463946FDF704
:103BE0004BFCCAF80000304603B0BDE8F08F09482E
:103BF0000CF0A8FC6FF07306304603B0BDE8F08F00
:103C00006FF01506EFE703480CF09CFC6FF00F0611
:103C1000E9E700BFA8070020D84702205CAB0100FD
:103C2000024A034B02600B60704700BF0000E14492
:103C30000000A04070B5062882B02DD805460E467B
:103C40004FF0FF331A484FF0FF320CF009FC194BCC
:103C50001B7823BB184C04EB051401AA082120464D
:103C6000FFF702FA054612480CF06CFCEDB9DDEDE9
:103C7000017A94ED027ADFED116AF8EEE77A67EEE9
:103C8000877A94ED037A67EEA67A67EE877AC6EDB7
:103C9000007A284602B070BD6FF01505F9E70448B8
:103CA0000CF050FC6FF00F05F3E76FF07305F0E7D1
:103CB000A8070020D84702205CAB010000000039B3
:103CC00002460B4601480CF0CBBB00BFE4070020C6
:103CD00001480CF037BC00BFE407002030B52DEDE3
:103CE000028B9FED168A83B004468DED018A002574
:103CF000F1EE088A607801A9FFF79CFF002810DB2D
:103D0000DDED017A8DB137EEC88AB0EEC88AB4EE27
:103D1000E88AF1EE10FA08D8019B6360012323734F
:103D2000002003B0BDEC028B30BD20690135B0EE40
:103D3000678A0FF048FE0C2DDCD1EDE70000000093
:103D4000F8B52DED068B0446F0EE408AB0EE608AA1
:103D5000FFF7C4FF054600286AD1DFED49AA1826FF
:103D6000B2EE00AA94ED019A78EEC97AB0EEE77A45
:103D7000B4EECA7AF1EE10FA5AD9B5EEC08AF1EE75
:103D800010FA59DD38EE6A7AB4EEC79AF1EE10FAFD
:103D900052DDF5EEC07AF1EE10FA4DD56FF01F014D
:103DA00067883944002961DDFF2961DC89B28F42CF
:103DB00061D020460FF0D4FD00285FDB20690FF0B2
:103DC00002FE2046FFF78AFF002857D16388DB1BDD
:103DD0002AD0D4ED016AF0EE007A76EEC96AB0EE30
:103DE000E67AB4EEE77AF1EE10FA1DDD07EE903ACE
:103DF000B8EEE77AC6EE877AF0EEE76AB6EE007ABA
:103E0000F4EEC76AF1EE10FA0EDB9FED1E6AF4EED7
:103E1000C66AF1EE10FA9FBFD4ED026A67EE877AA8
:103E200046EE877AC4ED027A013E9BD16FF07305AE
:103E3000BDEC068B2846F8BD94ED027AC7EE879A52
:103E4000B0EE690A0FF0C4FC10F11F0F0146A5DBAC
:103E500018B12028A8BF2021A2E7F5EEC09AF1EE04
:103E600010FACCBF01214FF0FF3199E700219EE706
:103E70004FF480719BE76FF02105D9E70546D7E73E
:103E80000000A042000048432DE9F0472DED028BD1
:103E9000DFF89091B9F8003007EE903AB3F5FA6F79
:103EA000F8EE678A00AF1ED941F2873293421DD8DF
:103EB00003F5FA7307EE903AB8EEE78A524EC0B9AE
:103EC0000123B0EE480A514833700FF052FD5048BC
:103ED000B0EE680A0FF04DFD04462046BD46BDEC2D
:103EE000028BBDE8F0879FED4B8AE7E79FED4A8A9A
:103EF000E4E7474D2B7B002B6BD0D5ED017AF4EE38
:103F0000E87AF1EE10FA4CBF012400240120FDF7FD
:103F100061FEDFF814A1012180460846FDF7E6FDA9
:103F20009AF800302BB90220FDF766FE02200FF050
:103F30004AFD002C4FD0DFED390A3448B0EE480A74
:103F4000FFF7FEFE044610B110F1220F08D12F4BEF
:103F50002F48D3ED010AB0EE680AFFF7F1FE0446E0
:103F60009AF800301BB94FF0FF30FDF745FE44B919
:103F7000264B2748D3ED010AB0EE680AFFF7E0FEB2
:103F8000044641460120FDF7B1FD002314F1220F44
:103F90003370A2D12248026812F0060F9DD0D5EDF1
:103FA000017A6988B9F800606D468AB0FDEEE77A5B
:103FB0006A46DFF878C008910521CDE905C6CDED48
:103FC000077A42F8101F4FF4225103F087F9AD46EB
:103FD00083E701249AE70D4B1A7B8AB1D3ED010ADE
:103FE0000B48B0EE680AFFF7ABFE044610B110F1C3
:103FF000220FB5D1DFED090A0448B0EE480AACE75C
:10400000DFED060AECE700BFDA470220640100207A
:104010007801002000401C4500E0AB450000000096
:1040200020070020CC050020DB4702209ABA0100BF
:1040300008B500210220FDF759FD01210320FDF7FD
:1040400055FD0C4841880FF08BFC0B4841880FF060
:1040500087FC14200FF0B7FC01210846FDF746FD50
:10406000FFF7F8FA80F00100BDE80840C0B2FFF7A2
:104070000BBF00BF640100207801002038B5FEF7B7
:1040800045F90546FDF706FE041E35DBB5F88C3014
:1040900041F28832934228BF1346B3F5487F1B4A4A
:1040A00038BF4FF448734FF0FF304FF0FF311380AB
:1040B000FFF706FEFEF734F900BBB5F89210144B7B
:1040C000032019800024FDF7FDFD124B21462046F8
:1040D0001C70FDF70BFD4FF4404200230E480CF01E
:1040E000BBFC95F890200D4B022A09D11A70FFF7FE
:1040F0009FFF0446FFF7ECFD204638BD1821DEE7A0
:1041000001221A700FF072FCF4E700BFCC0500200A
:10411000CC470220DB47022030000020D2050020DF
:1041200038B5431E012B044620D8124D4FF0FF3006
:104130004FF0FF31FFF7C4FD2B78A34214D0022CBF
:104140002C700DD1FFF774FF0446FEF7DFF82B78D3
:1041500080F89030FEF740F9FFF7BAFD204638BDF1
:104160000FF044FC0024F0E70024F5E76FF015049D
:10417000F4E700BFD205002038B541F288339842F9
:1041800028BF184604464FF0FF314FF0FF30FFF7CD
:1041900097FD104B104D1B78B4F5487F38BF4FF496
:1041A0004874022B2C8012D1FFF754FA80F00100E2
:1041B000C0B2FFF769FE0446FEF7A8F82B88A0F806
:1041C0008C30FEF709F9FFF783FD204638BD002447
:1041D000F2E700BFD2050020CC050020014B187883
:1041E000704700BFD2050020014B1888704700BF00
:1041F000CC050020014B1878704700BFDB47022038
:1042000008B54FF0FF304FF0FF31FFF759FD074B76
:104210001B7833B1064B1B78022B02D10120FFF72C
:1042200033FEBDE80840FFF753BD00BFDA47022068
:10423000D205002010B5014604460320FDF742FDDB
:1042400008B9014B1C8010BDCC4702202DE9F04776
:104250002DED028BDFF81091DFED428AB9F80050A6
:1042600082B080460E462827B1EE008A6A46302189
:104270000020FFF783FC00286CDB009BA8EB030AFF
:104280000AF10203042B6AD907EE90AAB8EEE70AF6
:1042900080EE080A0FF09CFA10F10F0F04464EDB77
:1042A00048B11028A8BF10242C44002C07DC00249F
:1042B00008E02546DAE7BAF1000F43DD6C1CFF2C5D
:1042C00043DCA4B2AC4243D021460320FDF7FAFC04
:1042D00000283FDB03200FF076FB01AA30210020ED
:1042E000FFF74CFC002835DBDDE900239B1A83EA4D
:1042F000E372A2EBE372012A1ADD651B07EE903A26
:1043000007EE105AF8EEE77AB8EEC77AC7EE876A7A
:10431000F0EEE67AB5EE007AF4EEC77AF1EE10FA36
:1043200006DBF4EE687AF1EE10FA98BFB0EE668A1A
:10433000013FBED1A9F80040348000200AE06FF0B0
:104340000F04B1E74FF0FF34AEE74FF48074B9E7E4
:104350006FF0210002B0BDEC028BBDE8F0872C4667
:10436000E8E700BF0000C843CC470220F0B583B0A7
:1043700000AF0446FDF7CEFF38B3FDF7C7FF90ED61
:104380000A0A0FF025FAB91DFFF760FF0346C8B906
:104390000F48026802F00702022A13D96D468AB05C
:1043A000F9886A460B4E07914FF40071ADF8201062
:1043B0000949CDE9056442F8101F4FF4135102F08A
:1043C0008DFFAD460C37BD46F0BD6420DBE700BF76
:1043D00020070020CDBA01000400000110B50446FA
:1043E000FFF738F938B9044B1B7823B92046BDE8EC
:1043F0001040FFF7BBBF10BDDB4702200148FFF7AD
:10440000EDBF00BF08CA010038B54FF0FF310446C8
:104410004FF0FF30FFF754FC0A4D44B12B7833B90D
:10442000094B1B78022B02D10848FFF7D7FF214622
:1044300000202C70FDF75AFB0446FFF749FC20468C
:1044400038BD00BFDB470220D2050020F1BA0100D1
:1044500038B505460C464FF0FF304FF0FF31FFF7FF
:104460002FFC1E4B1B782B701D4B1B886B801D4B2C
:104470001B782B711C4B1B786B711C4B1B88EB80C2
:104480001B4B5B882B811B4B5B886B81FDF7F6FB1D
:10449000194B2877AB616B612B61EB60D4B105F1EF
:1044A0000C010220FFF7C6FB044698B905F1100184
:1044B0000320FFF7BFFB044660B905F11401042097
:1044C000FFF7B8FB044628B905F118010520FFF7EE
:1044D000B1FB0446FFF7FCFB204638BDD2050020A7
:1044E000CC050020DB470220DA470220CC4702201F
:1044F00078010020640100200000C07F08B54B78DF
:104500001BB900F033FA002008BD06F02FFB024B68
:104510006FF085021A50F6E70C00000008B513464C
:104520004A78212A0BD1CA880169072A28BF0722A5
:10453000083103F10C0011F0D1FD002008BD06F098
:1045400015FB024B6FF085021A50F6E70C000000D5
:1045500030B54B78072B87B00C46154608D0082B92
:1045600015D006F003FB0D4B6FF085021A500BE0DF
:10457000684600F0DDF9E288182A28BF182269464B
:1045800005F10C0011F0AAFD002007B030BDCA886B
:104590000349132A28BF1322F2E700BF0C000000D2
:1045A00081E70100F8B507690B7E16463A680C46AC
:1045B00092F83D109942054616D136B9218A21B1AB
:1045C000104B1B680BB1E0689847204606F0CEFF01
:1045D000012107F114000FF039FA713602D0284694
:1045E0000FF044FA0020F8BD92F836209A42204697
:1045F00005D106F0BBFF04480CF02AF8F2E706F0FC
:10460000B5FFEFE7D82E0220EC080020024B18601F
:10461000024B1960704700BFD82E0220D42E022012
:10462000064BBFF35B8F1868BFF35B8F10F0010080
:104630001CBF33F8040C00F001007047D4010020C7
:1046400010B5044B1A6822B1FFF7EAFFBDE810402D
:10465000104710BDD42E022038B50369BFF35B8F1D
:10466000044603F1140050E8003F43F0010340E822
:104670000032002AF7D1BFF35B8F01210FF0E6F97A
:1046800007480CF03FF8042505480BF0E1FF013D19
:10469000FAD120460FF0EAF9BDE83840FFF7D0BF65
:1046A000EC08002008B503694878202808D02228A3
:1046B00012D006F05BFA0B4B6FF085021A5009E03E
:1046C000C988072906D1D2681168996091889981B3
:1046D00092799A73002008BD4A881A82FFF7B0FFCA
:1046E000F8E700BF0C000000F8B51449064691F841
:1046F00036701349BFF35B8F0C68BFF35B8F14F008
:10470000010414D00F480BF0D7FF054690B90E48AE
:104710003246394612F093FB044620B909480BF0A3
:1047200097FF6FF00B05069B1D602046F8BD6FF0EC
:104730007F05F8E76FF00A050024F4E7E1050020A3
:10474000D4010020EC080020AC01002008B506F0E0
:104750000DFF0248BDE808400BF07ABFEC080020CE
:1047600038B5038A427E03F03F03B3FA83F35B0953
:1047700063F3C302427601460446054812F063FB28
:10478000054610B12046FFF7E1FF284638BD00BFBF
:10479000AC010020094BBFF35B8F1B68BFF35B8F3D
:1047A000DB0709D5064B9B68032B05D8054B06484C
:1047B00093F8361012F062BB704700BFD40100209E
:1047C000EC080020E10500203409002037B54FF047
:1047D00080520D21D2F8A830D2F8A42000929BB2CA
:1047E000424A4348434D43F440430DF001FC4048E6
:1047F000FCF7BEFE0130400028753F493F4811F0EC
:10480000B1FD044688B93E493C4811F0ABFD044671
:1048100058B93C49394811F0A5FD044628B9374834
:10482000294611F09FFD044638B1374803685B07FD
:104830004CD0364A2346012146E00146344A2F48EF
:1048400012F077F8044630B12F4803685D073DD079
:10485000304A2346EFE702462F492848012312F049
:1048600042F9044678B902462C492448012312F043
:104870003AF9044638B9024629492048012312F082
:1048800032F9044630B12048036859071ED0254A42
:104890002346D0E70123EF22014600931748022365
:1048A00011F06AFC4FF48171144811F04FFC134869
:1048B00011F08BFC044660B1134B1B685A0705D0FE
:1048C000194A03461048012110F062F8204603B04F
:1048D00030BD0A4811F0A9FC04460028F6D00A4869
:1048E00003685B07F2D0114A2346A4E705BB010029
:1048F000DC47022018020020780200203409002042
:1049000060020020480200204C0700200EBB01007E
:104910000402002025BB010037BB01003FBB0100A2
:1049200048BB010052BB010069BB010077BB01001D
:104930000C4B036001220C4B027202224360827214
:10494000002310224372C372037343738373C373D0
:10495000037443748274C374037542758375C3759D
:10496000704700BF0010000024E2010010B50948A4
:10497000036803F00703022B03D9074A03210FF052
:10498000FEFFBDE81040054840F6CD4200230CF084
:1049900063B800BFE006002098BB01006000002063
:1049A00000B583B000224FF4FF73CDF80320ADF8BB
:1049B00000308DF80200002200236946024814F0FE
:1049C000FFFA03B05DF804FB5C080020002944D026
:1049D00001392DE9F041214E214CDFF89880451E28
:1049E00047181BE0302B2DD818F90310002929DBBC
:1049F0004FF001012370627031700DD100233370CC
:104A0000184800220023214614F0DAFA20B1164893
:104A1000036813F0060F1AD1BD4211D0327815F891
:104A2000013F002ADED0617820784A1C18F9000086
:104A3000D2B22144824262708B70DFDABD42EDD186
:104A4000BDE8F081094A536801335360E4E72378F5
:104A5000074A02210FF09CFFDEE77047E94702207A
:104A6000DC3A02205C08002028070020E43A0220FB
:104A7000C4A901003CAC010010B519480BF042FE7E
:104A8000FEF77EFD16484FF4804200230BF014FE23
:104A900058B9144C144B00221A70FFF7B1FB23686D
:104AA00003F00703022B0CD810BD104A0D4C1369FC
:104AB0002168013311F0060F136109D1FEF71CFFC5
:104AC000E8E70B4A0748BDE8104003210FF057BF45
:104AD000084A022120460FF052FFFEF70DFFD9E7EA
:104AE000CC08002028070020EE470220E43A0220EC
:104AF00004AA0100E8A90100F0B5C568B2F814E005
:104B0000E97044F24A332B800123AB7013686B6069
:104B100093882B81214B224C1B78AB720023EB72C4
:104B20001389AB819389EB8153892B74D3896B747F
:104B3000917C137C43EA0113AB74D17C537C43EA30
:104B40000113EB74C6684FEA8E0106F11407B446F0
:104B50004FF0FF331CF8012B5A40D2B2BC4554F839
:104B6000222082EA1323F5D106F1180C69B10EF167
:104B7000060E06EB8E0E1CF8012B5A40D2B2F445FD
:104B800054F8222082EA1323F5D1DB436B61BDE8A0
:104B9000F04018310C3011F09BBA00BFED470220F5
:104BA000DC3602202DE9F04F994C9A4FDFF87892CD
:104BB000994EDFF87882DFF878A28DB005AD40F627
:104BC000CD400021FEF74CFD2378002B00F08680BD
:104BD00001233B70002307930B93CDE90833069321
:104BE00022784FF404734FF40071ADF82C308B4BE6
:104BF000ADF81C100A9302BBCFE0069818310130C3
:104C000006AAFEF755FD0028C0F2FA80584606AA0B
:104C10000821FFF771FF5846FFF7A2FD10B9B369ED
:104C20000133B3617E480BF08DFC069B03F50073E6
:104C300006932378002B00F0B08014F0E7FC4A01C3
:104C400043011B1A42EAD06262EB0102920042EA7F
:104C500093729B00181841EB0201C900D8E90023A8
:104C600041EA5071C0F3103040EA414090424FEAAF
:104C7000D131994180F291804FF0FF324FF0FF33F4
:104C800067480BF0EDFB40F6CD42002340F658009C
:104C90000095FFF729FD8346002877D099F800207A
:104CA000C16802F0FF03002AA7D1BDF82C201431FF
:104CB000002AABD0069A1A4441F8042FBDF82C20E4
:104CC00001339342F6D3A1E75846FFF73FFD54481E
:104CD0000BF038FCFEF7CCFC002849D04FF0FF3336
:104CE0004F484FF0FF320BF0BBFB9AF80030002B1F
:104CF0003BD0FEF7BDFC002837D0009540F6CD42F2
:104D0000002340F65800FFF7EFFC8346002867D0E9
:104D1000C06806A91830FEF75DFD0028D4D09DF8C4
:104D20001F309DF81E205B0043EA8203DBB2039331
:104D3000FCF7A4FF039B40EA030106AA5846C9B248
:104D4000FFF7DAFE5846BBF810B0FFF709FD002860
:104D500050D0B3680133B36031480BF0F3FBBDE7CB
:104D6000B3680133B360FEF7C7FD2D480BF0EAFBD3
:104D70009AF80030002B3FF422AFFEF7EDFD00283B
:104D80003FF41DAF27480BF063FC18E724480BF0F5
:104D9000D9FB059B0B333FF44CAF4FF0FF324FF084
:104DA000FF331F480BF05CFB4FF4804200231820B8
:104DB0000095FFF799FC834658B1002306AA0A2103
:104DC000ADF81C30ADF82C30FFF796FE5846FFF7D3
:104DD000C7FC13480BF0B6FB002323703B70EEE6D4
:104DE000059B0B33BCD1F3680133F3600C480BF027
:104DF000A9FB73E7FEF7BAFE73695B447361ABE727
:104E00005846FFF7A3FC06480BF09CFBC5E700BF24
:104E1000EC470220EA470220E43A02200B030B0889
:104E200048080020CC080020EB470220A00C0020FE
:104E3000EE4702202DE9F0472DED028BB84EB94F19
:104E4000DFEDB98A82B0B9484FF0FF324FF0FF333F
:104E500069460BF0A1FA0028F5D132689DF80030C0
:104E60000132302B326000F20781052BEBD9063B73
:104E70002A2BE8D801A252F823F000BFCB4F000044
:104E8000BD4F0000474E0000474E0000474E000057
:104E9000474E0000AD4F00009F4F0000474E0000FE
:104EA000474E0000474E0000954F0000474E00005F
:104EB000474E0000474E0000474E0000474E00009E
:104EC000474E0000474E00002D500000474E0000A6
:104ED000474E0000474E0000474E0000474E00007E
:104EE000474E000049520000474E0000474E000068
:104EF000474E0000474E0000534F0000474E000051
:104F0000474E0000474E0000474E0000474E00004D
:104F1000474E0000474E0000474E0000474E00003D
:104F2000474E0000294F00009DF8028018F07F09CD
:104F300000F058813B78002B00F00E817C4803681C
:104F400013F0060F3FF47FAF7A4A02210FF017FDEE
:104F500079E79DF80280B8F1040F00F2B580DDF822
:104F6000033008EE103AF0EEC87AF4EE687AF1EE0B
:104F700010FA00F2A980B5EEC08AF1EE10FA40F204
:104F8000A380FDF7C3F900EB880080ED1E8AFDF7D2
:104F900023FA58E79DF80200FFF7C2F853E7BDF87F
:104FA000020040BA80B2FFF7E7F84CE79DF8020034
:104FB000003818BF0120FFF727FA44E73B78002BA1
:104FC0003FF441AFFFF758FD3DE73B7803F0FF02A8
:104FD000002B7FF438AF584BDFF878811A7098F8BF
:104FE00000303BB1A420002114F030FA98F80030D2
:104FF000002BF7D1514A13784FF001084344137046
:1050000087F80080FEF7A4F9DFF824C1DCF800304F
:1050100003F00702031EC0F2F880022A7FF613AFE6
:10502000474A604603210FF0AAFC0CE7424BDFF829
:10503000248100221A7098F800303BB1A42000218E
:1050400014F004FA98F80030002BF7D13B780BB13C
:10505000FFF712FD3B484FF40061FDF71BFA814654
:1050600000283DD1324803685B073FF4ECAE364A76
:1050700001210FF084FCE6E6FE2B7FF4E4AE9DF800
:105080000230002B7FF4DFAE2B4ADFF8C8801370AC
:1050900098F800303BB1A420002114F0D7F998F81B
:1050A0000030002BF7D13B78002B40F0B9804FF057
:1050B000FF324FF0FF3325480BF0D2F9FFF76AFBC0
:1050C00022480BF03FFABEE61948036813F0060FBA
:1050D0003FF4B9AE1E4A434602210FF059FCB2E636
:1050E0001A48DFF860A04FF0FF324FF0FF330BF0AB
:1050F000B7F9B9F5806FC84628BF4FF480684FF400
:1051000080420023414650460EF0EFFC002857D164
:10511000B9EB0809C244ECD10C480BF013FA92E643
:10512000E43A0220EE470220FFFF7F7F5C08002068
:105130002807002094AA0100EC470220ED47022036
:10514000ACAA0100DC2E02203CAA01004808002085
:105150007CAA0100EA47022014F058FAB9F13C0F8A
:105160004FEA41124FEA4013CE4642EAD06228BFCE
:105170004FF03C0E1B1A62EB0102920042EA93725E
:105180009B001B1841EB0202D20042EA5372C3F3A8
:10519000103343EA42434FF47A70D20BCEFB003215
:1051A0004FEAD81CDFF8D890DFF8D8802E491C468B
:1051B00015460123C9E9004588F800C00B7042E696
:1051C0002A49B3680A68013312F0060FB360A3D00E
:1051D000274A0346084602210FF0DAFB25480BF068
:1051E000B1F930E6204BDFF8A08083F8009098F802
:1051F0000030002B3FF427AEA420002114F026F944
:1052000098F80030002BF7D11DE600213970002AF4
:105210003FF419AE184A414660460FF0B9FB12E65A
:1052200000233B70FEF7ACF9FEF766FBFEF7E8FFE4
:105230000E48036803F00703022B7FF638AF0F4ACE
:1052400003210FF09CFB32E73B7853B90020FFF7B6
:10525000DBF840F6CD40002114F0F8F8012001F011
:1052600017FAFFF709FCF1E7EC47022028070020B6
:1052700060AA01004808002020AA01000CAA010031
:10528000A00C0020EB470220EA47022038B50D4B66
:105290000D4D03F5806000221146082441F3000CF7
:1052A0000CEA050C013C8CEA5101F7D143F8041FCC
:1052B000834202F10102EFD104490548FFF7A6F944
:1052C000204638BDD83602202083B8EDA149000021
:1052D000CD490000014B1878704700BFEE4702200F
:1052E00010B4064C84460FCCACE80F0094E80700DD
:1052F0008CE807005DF8044B704700BFE43A0220D9
:1053000030B403460A460D4881688C687CB90C6845
:105310000CB14D681DB930BC70472B4605E0642ABE
:10532000F9D81946002AF8D0234630BC1847642A19
:10533000F1D81946234630BC184700BF9C9F010096
:10534000F8B5234C237833B300256426FEF752FFCB
:1053500000280CBF00271927FFF7BCFF044600B345
:10536000B5FBF6F306FB1353312B88BFC3F164037F
:10537000372202FB03F13223B1FBF3F10531C9B24D
:10538000002238460EF0D2FB0135002140F21F50BA
:1053900014F05CF8DAE7002140F21F5014F056F8E0
:1053A000D0E7FFF73DF980B9B5FBF6F306FB1353E1
:1053B000312B88BFC3F1640317225A433223B2FB57
:1053C000F3F20232D2B20021DBE71E222146D8E7F7
:1053D000EF47022008B50C4813F0F9FC50B90B4810
:1053E00003685B0703D00A4A01210FF0C8FA6FF087
:1053F000120008BD1422104611460EF097FB054B13
:1054000001221A700020F4E79C9F0100F80600209A
:10541000B2BB0100EF47022008B503490FF060FD61
:10542000FFF7A4FA002008BDCEBB0100F7B5D1E913
:1054300010239A4205460C4604D870210091164963
:105440000FF04EFDE36B154F03F00F0264214A434A
:10545000120900921B09124A082128460FF025FD67
:105460004434002654F8043F5BB10E4A172E08BF9F
:105470003A46CDE9002308210B4A334628460FF06F
:1054800014FD0136182EEDD1084A0821284603B034
:10549000BDE8F0400FF009BDEFBB0100EDBB01001E
:1054A00024BC01002ECB010051BC01002DCB01001A
:1054B0002DE9F0430129B1B007460E46154625D91E
:1054C0000022686811460CF0BFFF022E804622D0F1
:1054D0002649A868FCF73AF8032EB0FA80F44FEAA0
:1054E000541416D00022E86811460CF0ADFF0646B1
:1054F000FFF7F0FE814680B11D4938460FF00CFDE4
:105500006FF00F05284631B0BDE8F08300244FF05E
:105510000208A026ECE70024FBE706AB3246214652
:105520004046FEF779FA051E05DA12492A46384642
:105530000FF0F2FCE6E7149B0593139B0493129B78
:105540000393109B02930F9B0B4A0C49CDE9006318
:105550000B4B3846002C08BF134642460FF0C0FCE8
:1055600006A93846FFF762FF4D46CBE76ABC01004B
:105570006FBC010023BF010065BC010085BC0100B8
:105580005CBC01000129F8B505460F46164627D92F
:10559000FFF7A0FE044630B1284618490FF0BCFCC6
:1055A0006FF00F00F8BD0246014670680CF04CFF2A
:1055B000C0B2FEF7A7FA002806DA284610490FF015
:1055C000ABFC6FF01500EDE7022F09D02246214613
:1055D000B0680CF039FFC0B2FEF7A6FA0028ECDB89
:1055E000FEF79CFA0446FEF7ABFA0649034622464C
:1055F00028460FF075FC0020D4E700BF6FBC010007
:1056000006BD01000CBD01002DE9F041012986B065
:1056100006460D46144629D90022606811460CF052
:1056200013FF022D074622D0D4F80880254C002510
:1056300054F8041B4046FBF789FF60B10135072D84
:10564000F6D1214930460FF067FC6FF01504204673
:1056500006B0BDE8F081EDB2FFF73CFE48B11B4952
:1056600030460FF059FC6FF00F04F0E7402700259B
:10567000F2E704AA39462846FEF780FA044620B924
:1056800005A90520FEF7D6FA0446002C05DA1049D4
:10569000224630460FF040FCD9E7FCF7D3FA044627
:1056A0000598FBF791FE049B0093064B0197CDE90B
:1056B0000201224653F82530064930460FF010FC0F
:1056C0000024C4E798AC01004DBD01006FBC01008F
:1056D00076BD01008ABD01002DE9F04157680E4EEC
:1056E0000546002456F83410384606EBC408FBF78C
:1056F0002DFF28B998F90400BDE8F041FCF77CBA09
:105700000134052CEED1284604490FF005FC6FF05A
:105710001500BDE8F08100BF70AC0100B9BD01000B
:105720000129F7B51346064612D9002258681146DA
:105730000CF016FE0546FFF7CDFD074678B115497A
:1057400030460FF0E9FB6FF00F04204603B0F0BDC8
:10575000FCF7DCFD90ED0A0A0EF03AF8EAE70DF1ED
:1057600006012846FEF772FD041E05DA0A492246A4
:1057700030460FF0D1FBE8E7FCF7C8FDBDF8062086
:10578000A0F8922005492B4630460FF0A9FB3C4675
:10579000DBE700BF6FBC0100D6BD0100E7BD010023
:1057A000F8B5134600221146054658680CF04CFE29
:1057B00087B206463846FEF73DFD041E06DA094963
:1057C000224628460FF0A8FB2046F8BDFCF79EFDB8
:1057D0000549A0F89270B2B228460FF081FB002470
:1057E000F2E700BF23BF010032BE010038B5134607
:1057F00000221146054658680CF026FE003818BFF6
:105800000120FEF701FE041E04DA03492246284661
:105810000FF082FB204638BD23BF010038B5134688
:1058200000221146054658680CF00EFE80B2FEF7C5
:10583000A3FC041E04DA0349224628460FF06CFB41
:10584000204638BD23BF010038B554680F490546CE
:105850002046FBF77BFEA8B10D492046FBF776FEFC
:1058600090B10022114620460CF0EEFDC0B2FEF7CA
:1058700057FC041E04DA0749224628460FF04CFB69
:10588000204638BD0220F2E70120F0E744C40100C1
:10589000DAB7010023BF010070B556681B49054601
:1058A0003046FBF753FE50B9FCF79EFD0028044636
:1058B00027DA0246164928460FF02EFB10E015495C
:1058C0003046FBF743FE044660B90EF041F8124A39
:1058D000124B1349002818BF1A4628460FF000FB48
:1058E000204670BD0F493046FBF730FE10B9FCF77B
:1058F000A9FDDBE70C4928460FF00EFB6FF01504FD
:10590000EEE70A4928460FF0EBFAE9E76EBE010020
:1059100023BF010074BE010068BE010064BE010027
:105920007ABE010058C5010088BE0100A1BE010079
:1059300010B50446FCF7B8FA204602490FF0D0FA39
:10594000002010BDA5BE010038B50546FCF7EEFCF1
:10595000041E06DA0549224628460FF0DDFA2046E5
:1059600038BD034928460FF0BBFAF8E7BFBE010077
:10597000D0BE010070B50646D2E901011546FCF71C
:1059800049FF041E05DA064930460FF0C5FA2046E5
:1059900070BD6A68034930460FF0A2FA0024F6E7AA
:1059A000D7BE0100F1BE01002DE9F043012985B009
:1059B00007460E46144610D90022606811460CF0C6
:1059C00043FD022E05460BD00022A06811460CF0C4
:1059D0003BFD044634B9264615E0A0240025F9E72E
:1059E000A024F7E7102CA04628BF4FF0100842462D
:1059F00069462846FCF7E8FF061E08DA12493246D7
:105A000038460FF089FA304605B0BDE8F0830F4AFA
:105A10002B46082138460FF048FA6E464FF0000931
:105A200016F8013B0A4A0821384609F101090FF02E
:105A30003CFAC845F4D1074A082138460FF035FA38
:105A40004544A4EB0804C5E71EBF01002FBF0100B9
:105A500035BF01002DCB010010B54FF400610446A5
:105A60000848FCF717FD30B9204607490FF054FAF3
:105A70006FF0040010BD2046024A04490FF030FACE
:105A80000020F7E7F04702203BBF01008CBF010078
:105A90002DE9F041C0B00446FFF71CFC80F0010185
:105AA000C9B205460EA8FEF7D3FC16A8FDF76CFF99
:105AB00007A8FFF715FC9DF83820674B6749022AB5
:105AC00008BF19460A46204665490FF009FA9DF8B5
:105AD0003D206449644B2046002A08BF0B46BDF8B0
:105AE0003A2062490FF0FCF99DF83C20604B614977
:105AF000002A18BF19460A4620465F490FF0F0F900
:105B00009DF854205D4B5E49002A18BF19460A468D
:105B100020465C490FF0E4F9BDF84230BDF83E2064
:105B2000594900932046BDF840300FF0D9F9FCF7F1
:105B300089F85649024620460FF0D2F9FCF7EAFBF5
:105B4000534A544B5449002808BF1A4620460FF0C8
:105B5000C7F9002D79D11198FBF736FC0646149849
:105B60000F46FBF731FCCDE904011398FBF72CFC41
:105B7000CDE902011298FBF727FC3246CDE900017E
:105B80003B46464920460FF0ABF9454A0C9B019332
:105B90001E9B444900932046169B0FF0A1F9DDE9B6
:105BA0001F67DDF88480FDF7B9FF0546FDF7C8FFE4
:105BB0003D49CDF80080CDE901503B4632462046B4
:105BC0000FF08EF9A0230193249B384900932046BF
:105BD000DDE922230FF084F916A92046FFF726FC01
:105BE000199A3349072320460FF07AF91C9A92B18B
:105BF000304B31491B681D9DB3FBF1F3DDE91A0100
:105C0000B5FBF3F50023FBF787FC2C4902462B4636
:105C100020460FF065F90B9B0193099B00932046EA
:105C2000DDE9172326490FF05BF90D9B0A9A2549F8
:105C300020460FF055F92046DDE9072322490FF0F1
:105C40004FF9002040B0BDE8F081204920460FF018
:105C500047F91F4A9AE700BF44C40100DAB70100C0
:105C600082BF01002ECB01004ABF010090BF01009E
:105C700007C90100E9C30100A3BF01005CBF010027
:105C800064BF0100B1BF0100BFBF0100DDBF010063
:105C90006BBF01006FBF0100EBBF0100FABF010045
:105CA0007ABF010055C001008BC00100DEC00100B9
:105CB0002BC101003805002040420F0054C10100F3
:105CC00083C10100D1C1010018C201002EC0010032
:105CD00072BF01002DE9F0478A4600AF00297AD053
:105CE00004680E1F361BF50826F0070604EB0608AD
:105CF000B8F8023013F0010319D13848026852078E
:105D00000DD0E94688B06A463549CDE9051A032128
:105D100042F8101F4FF4C25101F0E0FACD460023C3
:105D200083F31188BFF36F8F0423184602DF2946DF
:105D300020460DF011FF284434F83030C01A854257
:105D40001AD02648036859070ED0E94688B06A463B
:105D5000244BCDE9053A032342F8103F00234FF4CA
:105D6000C25101F0BBFACD46002383F31188BFF383
:105D70006F8F0423184602DFB8F8023023F00103C6
:105D8000A8F80230294620460DF0E6FE05EB000893
:105D900004EBC8035B88DA0708D4414620460DF0BF
:105DA00024FF4246294620460DF064FFA65BAE1B49
:105DB00004EBC6035B88DB0709D4314620460DF0AF
:105DC00014FF2A46314620460DF054FF3546294639
:105DD00020460DF0C6FEBD46BDE8F0871C0700203A
:105DE000ADC5010084C501002DE9F04F91B08407D5
:105DF000009302F004030293C2F3C20303F1010310
:105E0000DDF868A0039205460E46059340F09D819B
:105E1000041D00284AD101F00706341DC6F108060A
:105E2000009B00275A1E4FF004084FF0FF330193E8
:105E30000497B946BB4643460DB1009820600598CB
:105E4000002800F3D78090480099814203D38F48FF
:105E50008142C0F0CF80039911F0020CA4EB050041
:105E600040F0D680B9F10F0F00F2CF80002D00F086
:105E7000D68009F140010DEB010EC0F387000199B6
:105E80000EF8200C0EF8101CBCF1000F00F0C380BF
:105E900060F07F000EF8200C013709F10109C5F10F
:105EA0000801043406914FF6DA7E8CE00729B7D852
:105EB0006FF01B0011B0BDE8F08F7A285BD84B283B
:105EC0000FD8472857D829282ED8252850D052D85F
:105ED000202818BF23280CBF4FF0010B4FF0000BF8
:105EE00071E04C382E2846D8DFE800F06D45454576
:105EF000454545454545454548454545454545454F
:105F000045564548485656566D486A456D451848A9
:105F10001845457F7C48454548457C0000204FF0AA
:105F2000000B4FF0040835E02A38C0B2012101FA15
:105F300000F010EA0E0F46D110F0625C2CD110EA8E
:105F4000010B40D06046013C4444B4FBF8F408FB2C
:105F500004F425B1A3EB050CA444B445A8D800284B
:105F600070D00598013805905AF8040B009063E74B
:105F70000199013901914FF0000B24E012F8010C56
:105F80006C2834D112F8023C00206C2B8346C8D117
:105F90004FF008084346D6E70AF1070A2AF0070A35
:105FA0000734BAEC027B24F0070435B1069820448C
:105FB000B0423FF67DAF84ED007B08344FF0000B1C
:105FC0004FF00808434612F8010F002853D0BBF1E8
:105FD000000F7FF472AF2528F5D1019B01330193A7
:105FE0004FF0010B4FF00408ECE7584697E700200C
:105FF0008346A8E7039988077FF551AF601B4FF0F0
:10600000010CB0F5007FFFF42DAF6FF0150051E7E4
:106010004FF0000CF5E70498013004903DE7BCF127
:10602000000F01D0013638E70299023600297FF4CB
:1060300034AF0098CDE90632FBF79AFADDE9063273
:1060400006442AE7042B08D10AF1040015B1DAF856
:106050000010216004348246B5E70AF1070323F0FB
:10606000070303F1080A1DB193ED007B84ED007B6B
:1060700008340823A7E7631BB3F5806FC5D23DB989
:10608000A6F10804E01815E7EC9D010028E80100DE
:10609000029A28609B082B709DF81030AAB1EB7013
:1060A000AF702FB108A80022C5F1010C91450ED1A7
:1060B000C5F101030DF120084FF0000A01930DF125
:1060C000300BD14512D1601BF4E66B70E8E710F895
:1060D000013B190608D50CEB040EB64503F07F030F
:1060E0003FF6E6AE04F8013B0132DFE71FB198F955
:1060F0000020002A17DB029BD3B11AF80B2004F80A
:10610000012B0022019B18191044B0423FF6D0AE7B
:1061100098F8000004F8010B00990392204613F050
:106120005AFB039A14440AF1010A08F10108C8E76E
:1061300098F8002055F822300093029B45F8223051
:106140000098FBF715FA421CDCE76FF00D00B1E692
:106150002DE9F04F97B000AFC7E90A3205468A46ED
:1061600049B903784678807800EB83002844564587
:1061700024D8A0EB050AD7F8803095F80280D7F82C
:10618000804003F00103FB61EB787B62B8F1000F04
:106190000CBF002404F001041BB1D7F880309A072B
:1061A00015D4A4B9FB6A1BB1BA6A51462846984770
:1061B000564630465C37BD46BDE8F08F441C20464D
:1061C000FBF7D6F9013020440AF1010ACFE7D7F8EE
:1061D0008030C3F3C0033B622B78BB619B003B6103
:1061E0006B687B61BB6905EB830BFB6A002B7BD182
:1061F0005646D844BCB11C461BF8013B55F8230059
:10620000FBF7B6F9D7F88430013043B1D7F88830BE
:10621000A34282BFD7F8843023F814000134C34569
:106220000644E9D1D846D7F8803013F0050F0CBFEB
:106230004FF0020B4FF0010B4FF000097B6A9945BC
:10624000B7D298F8013055F823A0B14B9A4508F120
:106250000208C0F05081AF4B3A6A9A452CBF002328
:1062600001232AB318F8021C7869FB620DF048FE7E
:10627000FB6AE8B1A848036813F0060F14D0EA4699
:106280008AB06A46A54B05937B69CDE906314FF488
:106290000073ADF82030A24B42F8103F00234FF4BA
:1062A000125101F01BF8D546023E09F10109C5E77C
:1062B00023B1FB6933B9A6EB0B06F6E7D7F88030BC
:1062C0009B07F2D55046FBF753F9D7F884304BB112
:1062D000D7F888309C423FBFD7F88420431C22F86F
:1062E000143001340644E0E7002C69D1B8F1000F06
:1062F0006CD0D7F880305E076BD5C14607F14800F7
:106300004246594613F067FA0BEB0803FB60002284
:106310000233796A8A425ED3D7F8802095F801B0BB
:10632000F969920704EB0B03DBB254BF4FEA590241
:106330000022002940F0A780D7F8801011F0040F48
:1063400014BF494600216B70A970EA703969BA6AB6
:10635000FB6A28469847061EFFF62BAFBB692B70D9
:106360007B6AEB704946BA6AFB6A85F801B085F82A
:10637000028007F148009847B0F10009C0F2B780E9
:106380003B697A6A786A03EB4201FB68BA6A414466
:1063900003EB4000AAEB0101FB6A98470028C0F21A
:1063A000A880B14409EB00064FF0000B07F1380A52
:1063B000A3456AD30021BA6AFB6A08469847F8E603
:1063C000444607F138004FF0000999E74446C146BA
:1063D0009AE7A14698E713F8016C13F8021C55F8E8
:1063E0002600B9604A498842C0F08B8049498842FA
:1063F000396A2CBF4FF0000B4FF0010B41B1B96867
:106400007869C7E900320DF07BFDD7E90032F0B9B9
:10641000BBF1000F1ED0F96949B1611C04F12800DD
:1064200007F13004041904F8206CCCB20FE0D7F85F
:10643000801048070BD509F1280007F1300C09F14D
:10644000010100EB0C0909F8106C5FFA81F90132C7
:1064500002335EE7D7F880108907DED409F12801FE
:1064600007F1300C8C44B9680CF8101C09F10100DC
:1064700007F1580151FA80F009F102095FFA89F930
:1064800000F8106CE3E700215DE71BF80A3087F89D
:10649000373055F82390D7F884302BB3D7F88830AD
:1064A0009B4521D2D7F8843033F81B80BA6AFB6A47
:1064B000012107F13700984700281ADB0644B8F19C
:1064C000000F06D14846FBF753F800F101081FFA08
:1064D00088F8BA6AFB6A414648469847002808DBB4
:1064E00006440BF1010B63E74FF00008DEE74E4670
:1064F0005FE606465DE63B6A002B3FF4DFAE002315
:10650000B0E6396A0029A5D04FF0000B77E700BF4D
:10651000EC9D010028E80100D8060020DAC5010042
:106520000400000130B50446EFF31185402383F3E6
:106530001288BFF36F8F044B0FCB84E80F0085F3F5
:106540001188BFF36F8F30BDA80D002001281FB543
:106550000C4605D0042822D06FF0150004B010BD01
:1065600013F054F8174AC30BC0F30E00A0FB02024D
:10657000C00B43EA414340EA4240C90BC4E9003141
:10658000A0606846FFF7CEFF694620460DF0D5FCB7
:1065900018B90D4B0FCB84E80F000020DEE713F095
:1065A00035F8084AC30BC0F30E00A0FB0202C00B73
:1065B00043EA414340EA4240C90BC4E90031A060CC
:1065C000EBE700BF00CA9A3B40A5010001287FB558
:1065D0000C4633D18A681B4B9A422FD813F016F819
:1065E000C20B42EA414252424FEAD13363EB4303CA
:1065F000CDE90023144AC0F30E00A0FB0202C30B36
:1066000043EA42435B426846029300F0E3F82146C6
:1066100068460DF092FCEFF31186402383F3128855
:10662000BFF36F8F9DE80F00084C84E80F0086F3DE
:106630001188BFF36F8F002004B070BD6FF015009C
:10664000FAE700BFFFC99A3B00CA9A3BA80D002099
:10665000014B1860704700BF9002002080B50546CE
:106660000E46174698460AF05BFE034604F07EFA93
:10667000DFF81890044649F8003042463046394663
:10668000A84754F8090004F0EDF900BF0800000025
:1066900008B50446EFF31183402383F31288BFF358
:1066A0006F8FEFF3108372B608F002FC204604F0FF
:1066B0009FFF03480DF073FC0FF0A8FCFCE700BF40
:1066C0008EC601002DE9F84344690569C76840F2A8
:1066D0006C73E1170135E41841F10001022D8CBF04
:1066E00000230123E41A61F100010029064607F1A5
:1066F000FF3751DA6FF4C77020184FF4C8724FF0AB
:10670000000361F10001FAF7B7FE264B03FB0044DA
:10671000D6E90083B6684FEAE37C4FF03C0E994619
:106720006346C6FB0E93A9FB0EC60EFB0366A308C9
:1067300040F26D1E032D0EFB043302463B4434BF72
:1067400009206FF0020064270544B4FBF7F4992098
:106750001B1B154C45431CEB080C4FF0050005F1C5
:106760000205B5FBF0F5A2FB04202B4404FB01015C
:1067700046EBE87698180D4A41F1000380180C4A60
:1067800063F10003A0FB020102FB031110EB0C00FC
:1067900041EB0601BDE8F8834FF4C87200232046A0
:1067A000B1E700BF70FEFFFFB13A02009405F5FFAC
:1067B0008051010010B5FFF785FF024604F0D6F9BD
:1067C0000B460349002444501046194610BD00BF33
:1067D0000C00000070B5204B82689A4216DDD0E9AB
:1067E0000016012976F1000503F1010392FBF3F392
:1067F0004FEAE3741DDAC91844EB0604C0E900143B
:10680000164901FB03238360012070BD002AFBDAD7
:10681000D0E900410029124EA3EB0203B3FBF6F3CB
:1068200010DA01F100459C4275F100050ADA0020FA
:10683000EBE7CD439D426FF00045A5EB0605A54172
:10684000D9DAF4E7E41A61F1000106FB0322C0E99A
:1068500000418260D8E700BFFFC99A3B003665C49B
:1068600000CA9A3B08B500F0B7F80A4941610A49E5
:106870000122C0E900220A6008490A60084A002390
:106880001360084A03611360C0E90233064A1360CB
:1068900008BD00BF2ECB0100B0020020AC020020DA
:1068A000083B0220043B0220003B02202DE9F04778
:1068B00081468846174600F08FF8C36804461BB926
:1068C00043691A78002A3ED10023E36063684B4590
:1068D00058F8232008DB314B6361204600F060F854
:1068E0004FF0FF30BDE8F087511C616192F800A0C5
:1068F000BAF12D0FEFD1951C65615678A6602D2E4B
:1069000004D1927872B901336360E4E756B9234D3C
:1069100065615146384612F0A1FF0028DDD0C4F869
:1069200008A056463146384612F098FF3A2E00D05D
:1069300070B92B7813B9636801336360204600F0A7
:106940002FF83F20CEE75D1C45611E788660E9E7A1
:1069500043783A2B0BD0002323612B7813B963685B
:1069600001336360204600F01BF8A068BAE72B787B
:106970000A4A33B9636801339945636004DD58F806
:106980002350C4E90452EAE762613D783A2D20467B
:10699000D5D100F005F82846A4E700BF2ECB0100B2
:1069A000084A01681160084A41681160074A816815
:1069B0001160074AC168074B116002691A6004F050
:1069C0001DBD00BFB0020020AC020020083B022029
:1069D000043B0220003B0220004870479402002044
:1069E0002DE9F047058B0446280717460CD50129E9
:1069F0000CBF45F0100545F02005258387F311886D
:106A0000BFF36F8FBDE8F087022905F0070540F05E
:106A1000948020460DF056FD052864D801A353F854
:106A200020F000BFFD6900003B6B0000E76A00003A
:106A3000A96A0000C36A0000D56A000001F00703DC
:106A40005A1F012A1FD8002221F00701062BD4F873
:106A5000008089B2C4E9002209D1434603E0628B79
:106A6000013262831B68002BF9D141F002012183BE
:106A700020460DF027FD4FF0000900286DD041F0B1
:106A80002001218369E0042B0AD121F0070189B29A
:106A9000218320460DF016FD10B141F02001218325
:106AA0004FF00008C14658E02369D3F80090238BCB
:106AB00023F0070343F0060323834FF00008464604
:106AC0004BE02369D3F80490238B23F0070343F0B2
:106AD0000403F1E72369D3F80890238B23F007031D
