:10100000000F01209D970000B35001008997000058
:101010008997000089970000899700000000000070
:10102000000000000000000000000000899800009F
:1010300089970000000000006D9B00008997000068
:10104000259C0000259C0000259C0000259C00009C
:10105000259C0000259C0000259C00001D2B000005
:10106000259C0000259C0000259C0000259C00007C
:10107000259C0000259C0000259C0000259C00006C
:10108000259C0000259C0000259C0000259C00005C
:10109000259C0000259C0000259C0000259C00004C
:1010A000259C0000259C0000259C0000259C00003C
:1010B000259C0000259C0000259C0000259C00002C
:1010C000259C0000259C0000259C0000259C00001C
:1010D000259C0000259C0000259C0000259C00000C
:1010E000259C0000259C0000259C0000259C0000FC
:1010F000259C0000259C0000259C0000259C0000EC
:1011000081F0004102E000BF83F0004330B54FEAB8
:1011100041044FEA430594EA050F08BF90EA020F25
:101120001FBF54EA000C55EA020C7FEA645C7FEAB8
:10113000655C00F0E2804FEA5454D4EB5555B8BFDB
:101140006D420CDD2C4480EA020281EA030382EA4C
:10115000000083EA010180EA020281EA0303362DDE
:1011600088BF30BD11F0004F4FEA01314FF4801CB1
:101170004CEA113102D0404261EB410113F0004FC3
:101180004FEA03334CEA133302D0524263EB43037A
:1011900094EA050F00F0A780A4F10104D5F1200E18
:1011A0000DDB02FA0EFC22FA05F2801841F1000173
:1011B00003FA0EF2801843FA05F359410EE0A5F147
:1011C00020050EF1200E012A03FA0EFC28BF4CF078
:1011D000020C43FA05F3C01851EBE37101F000452E
:1011E00007D54FF0000EDCF1000C7EEB00006EEB3B
:1011F0000101B1F5801F1BD3B1F5001F0CD34908C5
:101200005FEA30004FEA3C0C04F101044FEA44521B
:1012100012F5800F80F09A80BCF1004F08BF5FEAA2
:10122000500C50F1000041EB045141EA050130BD82
:101230005FEA4C0C404141EB0101013C28BFB1F594
:10124000801FE9D291F0000F04BF01460020B1FADF
:1012500081F308BF2033A3F10B03B3F120020CDAB2
:101260000C3208DD02F1140CC2F10C0201FA0CF090
:1012700021FA02F10CE002F11402D8BFC2F1200CF5
:1012800001FA02F120FA0CFCDCBF41EA0C019040AB
:10129000E41AA2BF01EB0451294330BD6FEA0404F4
:1012A0001F3C1CDA0C340EDC04F11404C4F12002DF
:1012B00020FA04F001FA02F340EA030021FA04F3F1
:1012C00045EA030130BDC4F10C04C4F1200220FA48
:1012D00002F001FA04F340EA0300294630BD21FA86
:1012E00004F0294630BD94F0000F83F4801306BF4C
:1012F00081F480110134013D4EE77FEA645C18BF40
:101300007FEA655C29D094EA050F08BF90EA020FD6
:1013100005D054EA000C04BF1946104630BD91EACE
:10132000030F1EBF0021002030BD5FEA545C05D1D1
:101330004000494128BF41F0004130BD14F5800410
:101340003CBF01F5801130BD01F0004545F0FE4184
:1013500041F470014FF0000030BD7FEA645C1ABFB9
:10136000194610467FEA655C1CBF0B46024650EAF0
:10137000013406BF52EA033591EA030F41F400211C
:1013800030BD00BF90F0000F04BF0021704730B5A2
:101390004FF4806404F132044FF000054FF0000177
:1013A00050E700BF90F0000F04BF0021704730B538
:1013B0004FF4806404F1320410F0004548BF40420D
:1013C0004FF000013EE700BF42004FEAE2014FEA62
:1013D00031014FEA02701FBF12F07F4393F07F4F3D
:1013E00081F06051704732F07F4208BF704793F040
:1013F0007F4F04BF41F40021704730B54FF4607453
:1014000001F0004521F000411CE700BF50EA010255
:1014100008BF704730B54FF000050AE050EA0102FE
:1014200008BF704730B511F0004502D5404261EB6E
:1014300041014FF4806404F132045FEA915C3FF4AF
:10144000D8AE4FF003025FEADC0C18BF03325FEA4C
:10145000DC0C18BF033202EBDC02C2F1200300FAFD
:1014600003FC20FA02F001FA03FE40EA0E0021FA22
:1014700002F11444BDE600BF7BB972B90029BEBFBA
:1014800000204FF0004106E008BF00281CBF6FF0AD
:1014900000414FF0FF3000F057B8ADF1080C6DE996
:1014A00004CE002909DB002B1ADB00F069F8DDF817
:1014B00004E0DDE9022304B07047404261EB4101E2
:1014C000002B1BDB00F05CF8DDF804E0DDE9022313
:1014D00004B0404261EB4101524263EB4303704769
:1014E000524263EB430300F04BF8DDF804E0DDE922
:1014F000022304B0404261EB41017047524263EB6A
:10150000430300F03DF8DDF804E0DDE9022304B018
:10151000524263EB4303704753B94AB9002908BFED
:1015200000281CBF4FF0FF314FF0FF3000F00CB827
:10153000ADF1080C6DE904CE00F022F8DDF804E00E
:10154000DDE9022304B07047704700BF10F8012B9B
:1015500011F8013B012A28BF9A42F7D0D01A7047F0
:10156000034611F8012B03F8012B002AF9D170472B
:10157000034613F8012B002AFBD1181A01387047D3
:101580002DE9F0478C468E46089E154604461946BE
:10159000002B40F0D080724547D9B2FA82F74FB1A4
:1015A000C7F120030EFA07FC20FA03F3BD4043EA1B
:1015B0000C0CBC404FEA154EA8B2BCFBFEF8230C45
:1015C0000EFB18CC08FB00F943EA0C43994528D9D7
:1015D000EB1808F1FF3204D2994502D9A8F10202B2
:1015E0002B44A3EB0903A4B2B3FBFEFC0EFB1C339C
:1015F0000CFB00F044EA0344A04214D92C190CF16E
:10160000FF3304D2A04202D9ACF102032C44241AC5
:1016100043EA02401EB1FC40002334607360BDE821
:10162000F0874246DDE76346F1E7002A79D0B2FA57
:1016300082F3002B3FD01946C1F1200302FA01F5D5
:101640002EFA03F20EFA01FE20FA03F343EA0E0328
:101650004FEA154E00FA01F4B2FBFEFCAFB20EFBEE
:101660001C201A0C0CFB07F842EA004290455AD99C
:10167000AA180CF1FF3004D2904502D9ACF1020057
:101680002A44A2EB08029BB2B2FBFEFC0EFB1C221A
:101690000CFB07F743EA02439F4246D9EB180CF1D3
:1016A000FF3204D29F4202D9ACF102022B44DB1B71
:1016B00042EA004202E0AEEB020301224FEA154E7D
:1016C000AFB2B3FBFEFC200C0EFB1C330CFB07F887
:1016D00040EA034398452AD9EB180CF1FF3004D2B5
:1016E000984502D9ACF102002B44A3EB0803A4B245
:1016F000B3FBFEFC0EFB1C330CFB07F744EA034470
:10170000A74216D92C190CF1FF3304D2A74202D9F3
:10171000ACF102032C44E41B43EA00400F4611469F
:1017200078E71F2188E76046ABE76246BFE760467F
:10173000DBE76346EFE7734506D916B90021084693
:101740006DE7C6E9000EF9E7B3FA83F787B9734589
:1017500001D3824207D8841A6EEB030301209C4612
:101760001EB900215BE73846FAE7C6E9004CF8E706
:10177000C7F1200CBB4022FA0CF51D4320FA0CF1F6
:101780002EFA0CF30EFA07FE41EA0E014FEA154954
:1017900000FA07F4B3FBF9F81FFA85FE09FB1830CD
:1017A0000B0C08FB0EFA43EA00439A4502FA07F2D3
:1017B00040D9EB1808F1FF3004D29A4502D9A8F1BC
:1017C00002002B44A3EB0A0389B2B3FBF9F809FB2F
:1017D000183308FB0EFE41EA03418E452CD96918E7
:1017E00008F1FF3304D28E4502D9A8F1020329443F
:1017F00043EA0040A0FB0298A1EB0E014145CE4612
:10180000434602D306D14C4504D2B9EB020E68EB35
:1018100005030138002EA4D0B4EB0E0261EB0301E6
:1018200001FA0CFC22FA07F34CEA0303F940C6E97B
:10183000003196E74046C5E74346D9E7000000007F
:101840002DE9F047064688B00F46904616F046FF51
:101850004FF47A73A0FB034503FB0155E40B012F02
:1018600044EA45444FEAD53507D1294922462B465B
:10187000304612F0A0FB002012E0D8F80470254892
:101880003946FFF763FE70B123483946FFF75EFE25
:1018900048B1304621493A4612F0A9FB6FF00400E6
:1018A00008B0BDE8F0872046294617A3D3E90023F6
:1018B000FFF7E2FD05460C4610461946184A00237C
:1018C000FFF7DAFD80460F46104619464EF66022B5
:1018D0000023FFF7D1FD82468946104619464FF492
:1018E0007A720023FFF7C8FDCDE902A9CDE90623EE
:1018F000CDE90401CDE900870A492A46234630464E
:1019000012F059FBB7E700BF005C2605000000009D
:10191000B7B70100C8B70100CBB70100D4B70100C9
:1019200080EE3600ECB701002DE9F04F87B0054698
:10193000039117461E46836804AA5B6898470028EF
:1019400031DBDDE9044AA7FB04B307FB0A3758463D
:1019500019A3D3E900233946FFF7DEFDDFF86080E5
:1019600002904FF0FF39D94578EB07031ED3A6FB51
:1019700004B406FB0A4410A3D3E9002321465846C9
:10198000FFF7CAFDD94578EB040403460ED302994C
:10199000AA6899420DD3BDF84010009114682846FA
:1019A000DDE90221A04707B0BDE8F08F6FF08500A8
:1019B000F9E76FF01500F6E700CA9A3B0000000057
:1019C000FFC99A3BF8B53B4C236803F00703022B91
:1019D00000AF14D96D4688B06A46374B0593374B34
:1019E00006934FF40073ADF81C30354B42F8103FAE
:1019F00000234FF4E651204604F0DEFCAD4600F033
:101A000081F8031E0ADA2268510704D02D4A2948BA
:101A1000012112F028F80020BD46F8BD00F098FA28
:101A200001F05AF901F0A8FE031E08DA226812F04C
:101A3000060F04D0244A1F48022112F014F802F0C5
:101A4000D5FC02F019FA031E07DA2268520704D007
:101A50001E4A1848012112F006F802F04BFD2368D7
:101A600003F00703022BD6D901F036FF184E194AAE
:101A7000022818BF164601F035FF044600F04AFC64
:101A8000154A164B6D468AB0002818BF13466A46A1
:101A90001349CDE90743134B0993134BCDE90516C1
:101AA00042F8103F034800234FF4435104F084FCF4
:101AB000AD46B0E72407002032A701004EA7010081
:101AC000030000015CA701006EA701007DA70100D3
:101AD000DDB301001EA7010027A7010025A7010013
:101AE0008EA701000002020405000002052804D8A8
:101AF000034B03EBC00010F054BF6FF015007047AC
:101B00009099010010B529484FF4B012062110F049
:101B10005CFF044650B1264803685B0704D0254AA1
:101B20002346012111F09FFF204610BD22484FF4AB
:101B3000B012042110F049FF044630B11C4803687C
:101B40005907F1D01D4A2346EBE71D484FF4803278
:101B5000042110F03AFF044630B1154803685A07D3
:101B6000E2D0184A2346DCE717484FF480320821B8
:101B700010F02BFF044630B10D4803685B07D3D04B
:101B8000124A2346CDE712484FF48032092110F063
:101B9000D8FE002808DB01210420FFF7A7FF012160
:101BA0000520FFF7A3FFBFE70446BDE790990100BA
:101BB000D4060020ADA7010070990100BFA7010065
:101BC00050990100D5A7010010990100E6A7010076
:101BD0008C8F0100052808B509D8064B03EBC0001F
:101BE00010F0CAFE0028D4BF0020012008BD00204C
:101BF000FCE700BF90990100F8B50D4E04460025A2
:101C00003746AC4203D00021304610F0CAFE013501
:101C1000042D06F10806F4D1E3B2032B06D807EB36
:101C2000C4000121BDE8F84010F0BBBE0020F8BDA3
:101C300070990100024B00F00F00185C704700BF64
:101C400002D70100F8B500240A4E25460127304688
:101C500010F092FE0028C8BF07FA04F304F1010453
:101C6000C8BF1D43042C06F10806F0D1024B585D95
:101C7000F8BD00BF5099010002D7010008B5044823
:101C800010F07AFE0028D4BF0020012008BD00BF5C
:101C90000899010008B5084816F001F950B907483D
:101CA00003685B0703D0064A012111F0D3FE6FF0F1
:101CB000120008BD0020FCE70C900100E4060020A3
:101CC000FEA70100F0B5032887B006460C4633D8BE
:101CD0001B4BB1F5807F1A5C28BF4FF48074230A38
:101CE00043EA021302278DF8083002AB8DF8094051
:101CF000039304978DF8147012489DF8143082688D
:101D00003B438DF8143095682C23012203A9A84782
:101D1000054628B90C4B23F81640284607B0F0BDFD
:101D20000A48036813F0060FF7D0094A00953346B6
:101D3000394611F0A2FEF0E76FF01505EDE700BFA0
:101D400012D701000C90010054BB0020E4060020D3
:101D500010A80100104A9FED117ADFED116A9FED86
:101D6000116A0023F2EC017AF0EEE75AF4EE475ADA
:101D7000F1EE10FA0ED8F4EEE67AF1EE10FA09D987
:101D8000F4EEC67AF1EE10FA04DC0133052BE9D14A
:101D90000120704700207047DC1C0020FFFF7F7F80
:101DA0006F12833A0050C3479FED097A00F1140384
:101DB000F0EC017AF0EEE77AF4EE477AF1EE10FA01
:101DC00003D89842F4D1012070470020704700BF2B
:101DD000FFFF7F7F30B413460446044882681568CD
:101DE0000A46AC46214630BC604700BF4C9001001B
:101DF00002460B4601480DF0A1BB00BFD0070020F2
:101E000001480DF00DBC00BFD007002038B50446D6
:101E10000F4816F044F8B0B19C2221464FF40070F0
:101E2000FFF7D8FF00280DDB22680A4B9A4207D142
:101E30009421201DD4F8985014F048FC854205D018
:101E40006FF04C0038BD6FF01200FBE70020F9E79F
:101E50004C90010050504B322DE9F34105460E469F
:101E6000174698460D48826854680A462946A04796
:101E7000044640B942463146384616F014FD204625
:101E800002B0BDE8F081064803685B07F7D0054A59
:101E900000942B46012111F0F0FDF0E74C90010079
:101EA0000407002032A8010010B5214C4FF0FF308C
:101EB0004FF0FF31FFF79CFF6A22002104F1280058
:101EC00016F018FD1B4B23601B4B63601B4BA3607C
:101ED0001B4BE3601B4B23614FF07E536361A36197
:101EE000E361236263626366A366E36623676367F5
:101EF000A367E367C4F88030C4F88430C4F888303E
:101F0000802240F6B833A4F88C30A4F89220012344
:101F10004FF0805284F89030126EA4F88E200A4A56
:101F200000211170094A1370BDE81040FFF768BF27
:101F3000DC1C00207BF48044CD4CCB426666224101
:101F4000D7A3703FC520303D6BBB00206ABB00208B
:101F50002DE9F04FC5B000AFB248B34D15F09FFF6B
:101F600088B92B685A0704D0B04A0121284611F0DD
:101F700071FDFFF799FF6FF01204204607F58A778D
:101F8000BD46BDE8F08F07F10C0640F20112314664
:101F90000020FFF71FFF041E0BDA2B685B0705D03C
:101FA000A34A23460121284611F05DFDFFF77CFF7F
:101FB000E3E74FF0FF304FF0FF31FFF719FFB64670
:101FC000BEE80F009B4CA446ACE80F00DEF80030E2
:101FD000CCF8003007F1200EBEE80F0004F1140C1D
:101FE000ACE80F00DEF80030CCF8003007F1340E1A
:101FF000BEE80F0004F1280CACE80F00DEF800305A
:10200000CCF8003007F1480EBEE80F0004F13C0C9C
:10201000ACE80F00DEF80030CCF8003007F15C0EC1
:10202000BEE80F0004F1500CACE80F00DEF8003001
:10203000CCF8003007F1700EBEE80F0004F1640C1C
:10204000ACE80F00DEF80030CCF8003007F18C0E61
:10205000BEE80F0004F1780CACE80F00DEF80030A9
:10206000CCF80030B6F8788096F8FB9096F8FCB083
:10207000B6F8FFA0A4F88C804FF0805384F89090BD
:1020800084F891B0A4F892A01B6E6B48A4F88E302F
:102090009422214616F007FCFFF75CFE2B68674E82
:1020A0007B60002800F0E280012304F1140033700B
:1020B000FFF77AFE48B9DFF8A4C1BCE80F0004F1CD
:1020C00014060FC6DCF8003033605D48FFF76CFE85
:1020D00040B9DFF88CC15A4EBCE80F000FC6DCF8DF
:1020E000003033605748FFF75FFE014618B9554886
:1020F000142216F0FFFB5448FFF756FE014618B9AC
:102100005148142216F0F6FB5048FFF74DFE0146E9
:1021100018B94E48142216F0EDFB4D48FFF744FE67
:1021200040B9DFF840C14A4EBCE80F000FC6DCF8EA
:1021300000303360464A05234FF07E51B2EE047AF8
:10214000F2EC017AF5EEC07AF1EE10FA04D9F4EE71
:10215000C77AF1EE10FA01DD42F8041C013BEFD121
:10216000A8F5487841F268031FFA88F8984588BFB7
:1021700040F6B83309F1FF3988BFA4F88C30B9F1C3
:10218000010F84BF012384F89030BBF1010F84BF9D
:10219000002384F89130BAF5807F2E4B8CBF01224A
:1021A00000221A700CD97B6813F0060F05D02A4A5A
:1021B0001D485346022111F056FC8023A4F89230AA
:1021C0002B6803F00703022B28D92068FFF7FCF8DF
:1021D000804620698946FFF7F7F8B4F88CC094F878
:1021E0009060B4F8925094F891306C468EB06A4684
:1021F000DFF874E0CDF814E0CDE90C530A23CDE903
:102200000689CDE90801CDE90AC642F8103F064823
:10221000002345F2C00104F0CFF8A546FFF7F0FD1A
:102220000024AAE64C9001000407002050A80100F9
:1022300061A80100DC1C0020481C00206BBB0020B2
:10224000401D0020041D0020181D00202C1D002012
:10225000541D00206ABB002078A80100D499010019
:10226000249A0100389A0100ABA801007B6813F0A2
:10227000060F04D01D4A0221284611F0EBFB6A220A
:102280001B48002116F036FB1A4B23601A4B636083
:102290001A4BA3601A4BE3601A4B23614FF07E5335
:1022A0006361A361E361236263626366A366E366BD
:1022B00023676367A367E367C4F88030C4F884309A
:1022C000C4F88830802240F6B833A4F88C30A4F8E3
:1022D000922001234FF0805284F89030126EA4F8BF
:1022E0008E2000223270084A137097E7ECA8010094
:1022F000041D00207BF48044CD4CCB426666224115
:10230000D7A3703FC520303D6ABB0020004870470E
:10231000DC1C0020014B1878704700BF6BBB00200D
:10232000014B1878704700BF6ABB002030B5A7B0DA
:10233000254815F0B4FD002842D04FF0FF304FF093
:10234000FF31FFF755FD2149214D942201A816F0D8
:10235000AAFABDF89030ADF800301E4A0223694653
:10236000782010F04BFBBDF89030A5F88C30044677
:1023700008BB142305F178021FA9802010F03EFB52
:102380000446C0B9012305F1900225A9FB2010F0F5
:1023900035FB044678B9BDF89630ADF8003005F14C
:1023A000920202236946FF2010F028FBBDF8963008
:1023B000A5F892300446FFF723FD204627B030BD34
:1023C0006FF01204F9E700BF4C900100DC1C002004
:1023D000481C0020D41C002002484FF48032002307
:1023E0000DF0DCBB0000002030B5A9B0124C204637
:1023F00015F055FDE8B14FF0FF304FF0FF31FFF71A
:10240000F7FC0E4B0E490193942202A816F04BFAEA
:10241000FFF7F6FC942102A814F058F92790A3685E
:1024200001AA5D684FF400719C232046A84729B09B
:1024300030BD6FF01200FAE74C90010050504B3263
:10244000DC1C002070B5A8B001A8FFF7DFFCE8B9DC
:102450004FF0FF304FF0FF3120ADFFF7C9FC0FCD3B
:102460000B4E06F178040FC42B682360BDF894303E
:10247000A6F88C309DF8983086F89030BDF89A30E8
:10248000A6F89230FFF7BCFCFFF750FF28B070BDF4
:10249000DC1C00202DE9F04FC34CAFB006460D46C2
:1024A0004FF0FF304FF0FF31FFF7A2FC214694229E
:1024B00009A816F0F8F9B4F88E30059394F8903026
:1024C0000493B4F8923094F89170B4F88C9003931C
:1024D000FFF796FCB54B0E934FF07E532293B44A10
:1024E0003B46294630460EF0F1FD041E03DA00207B
:1024F0002FB0BDE8F08FAC42F9D209AF4FF0000821
:1025000057F8040BFEF760FFA5EB040B06EB040A7B
:10251000CDE90001A74A4346594650460EF0D6FD84
:102520000028E4DB8345E2D908F10108B8F1050F82
:102530000444E5D10DF1380A4FF000085AF8040BB5
:10254000FEF742FFA5EB040B3719CDE900019A4ACB
:102550004346594638460EF0B9FD0028C7DB83458F
:10256000C5D908F10108B8F1050F0444E6D10DF111
:10257000880A4FF000085AF8040BFEF725FFA5EB78
:10258000040B3719CDE900018C4A434659463846B9
:102590000EF09CFD0028AADB8345A8D908F10108AC
:1025A000B8F1050F0444E6D10DF14C0A4FF00008D4
:1025B0005AF8040BFEF708FFA5EB040B3719CDE919
:1025C00000017F4A4346594638460EF07FFD0028F9
:1025D0008DDB83458BD908F10108B8F1050F044460
:1025E000E6D12F1B774A4B46394630190EF06EFD67
:1025F0000028FFF67CAF87427FF679AF0444A5EB55
:102600000409059B704A494630190EF05FFD071E0C
:10261000FFF66DAFB9457FF66AAF2744A5EB070813
:10262000049B6A4A4146F0190EF050FD041EFFF665
:102630005EAFA0457FF65BAF3C444FF0000918AF9A
:1026400057F8040BFEF7C0FEA5EB040806EB040ADE
:10265000CDE900015E4A4B46414650460EF036FD3C
:102660000028FFF644AF80457FF641AF09F101092C
:10267000B9F1050F0444E3D11DAF4FF0000957F83D
:10268000040BFEF7A1FEA5EB040806EB040ACDE956
:102690000001504A4B46414650460EF017FD0028B7
:1026A000FFF625AF80457FF622AF09F10109B9F1A8
:1026B000050F0444E3D127AF4FF0000957F8040B8E
:1026C000FEF782FEA5EB040806EB040ACDE9000143
:1026D000414A4B46414650460EF0F8FC0028FFF6B2
:1026E00006AF80457FF603AF09F10109B9F1050F87
:1026F0000444E3D1A5EB0408039B384A4146301952
:102700000EF0E4FC071EFFF6F2AEB8457FF6EFAE22
:1027100008A907A800F004FE0798FEF755FE274415
:10272000F419A5EB0708CDE900012D4A20464146E2
:102730000EF0CCFC041EFFF6DAAEA0457FF6D7AE55
:102740000898FEF741FE3C443719A5EB0408CDE993
:102750000001244A384641460EF0B8FC071EFFF639
:10276000C6AEB8457FF6C3AE2744A5EB07081E4AA0
:102770004CF250334146F0190EF0A8FC041EFFF64F
:10278000B6AEA0457FF6B3AE3C442D1B174A294692
:1027900030190EF09BFC0028FFF6A9AE85427FF6AB
:1027A000A6AE2044A4E600BFDC1C00204A1EEC1F9D
:1027B0001FA901002FA901003BA9010048A90100A0
:1027C00055A9010061A901006AA9010072A90100CF
:1027D0003CA9010049A901007CA9010089A90100C7
:1027E00091A901009CA90100A8A90100B8A90100B4
:1027F00073B500220E466946054610F8013B2BB121
:10280000A3F13004092C01D9072A41D102F10803B0
:102810000DEB03024FF0FF3000234FF0FF3102F8C1
:10282000083CFFF7E5FA2B78002B64D0494968464D
:10283000FEF78CFEA8B348496846FEF787FE90B3C2
:1028400046496846FEF782FE78B345496846FEF77A
:102850007DFE60B343496846FEF778FE48B34249BF
:102860006846FEF773FE30B34049414C6846FEF7B8
:102870006DFE002818BF0024284616F043F80546D0
:10288000DCB96FF01504FFF7BBFA204602B070BD4B
:10289000A3F14104192C98BF203301F8013B013208
:1028A000AAE7344CE8E7344CE6E7344CE4E7344C30
:1028B000E2E7344CE0E7344CDEE70028E1DB0428B3
:1028C000DFD8002130460EF02BFCDFED307AB0EE81
:1028D000C07AB4EE677AF1EE10FAD2D8254B04EB49
:1028E00085059C4285ED000A03D1FFF733FA284B9A
:1028F00018700024C7E727496846FEF727FE0246FE
:1029000038B9014630460EF00DFE1A4BA3F88C0084
:10291000EFE721496846FEF719FE024638B901463D
:1029200030460EF0FFFD134B83F89000E1E71B49A2
:102930006846FEF70BFE04460028A2D10246014677
:1029400030460EF0EFFD0B4BA3F89200144B1C70B9
:10295000CFE700BFB0C60100BDA90100C0A90100BA
:10296000C3B10100A6A70100C1A90100C3A90100CC
:10297000541D0020DC1C0020F01C0020401D002005
:10298000041D0020181D00202C1D0020FFFF7F7F4C
:102990006BBB0020C6A9010063C70100CAA90100E2
:1029A0006ABB002070B504460D461646064815F071
:1029B00076FA30B1324629462046BDE87040FFF72E
:1029C00009BA6FF0120070BD4C900100174A002345
:1029D0004FF0FF31C2F80035C2F808130321C2F8E6
:1029E000F015C2F8F8351A46190101F1804101F5D8
:1029F000E0410133082BC1F81025C1F81425F3D1AB
:102A00000A4BC3F80021D3F80011C3F80421D3F80E
:102A10000411C3F80821D3F80811C3F80C21D3F826
:102A20000C11C3F81421D3F8143170470070004022
:102A30000E4B0F4A19780F4B0F4842EA0141C3F879
:102A400018150821C3F810150621C3F814150078CD
:102A500042EA0042C3F828250522C3F820250022B7
:102A6000C3F82415C3F8F425704700BFD005002033
:102A70000003100000700040CF05002073B5002354
:102A80000D461646ADF80630FFF7A0FF42681E4B14
:102A90001E4C43EA0223C4F818350378C4F81035F5
:102AA0000623C4F81435C4F8F4556B440125C4F862
:102AB0002C364FF47A71C4F830564FF48070C4F855
:102AC000005525600FF0BAFFD0B9656047F230516C
:102AD0004FF482700FF0B2FF05460123A3604FF45C
:102AE0007A714FF48A700FF0A9FF0023C4F8003503
:102AF0001DB9BDF806301BB23360284602B070BD68
:102B00006FF07305E9E700BF000015010070004099
:102B100001480CF085BD00BFA8070020684620F0E2
:102B200007018D462DE9F143504A51480123936432
:102B3000D2F8486502F588325364D2F84435D2F8A9
:102B400040259B1AB3F5C07F34BF1A09172250F8ED
:102B50002210013140F82210464A11688B4288BF8A
:102B60001360454B01225A64444AD3F84415136854
:102B70001160CB1A012B09D941490A68013A1A445C
:102B80000A60404A11688B4288BF13603E4A13684E
:102B9000013313603D4B0022C3F80421D3F8043104
:102BA0003B4B19885A884FF0A0430FB2D3F81085D9
:102BB000D3F810484FEA186303F00C0308F0030041
:102BC000184315B2FFF736F8072881461CD1314B60
:102BD0001B78CBB1304A536801335360234B012239
:102BE000DA642E4AD3F84C35126813449B1BB3FBAE
:102BF000F2F102FB11332A4A11688B4288BF13603D
:102C0000BDE8F143854670472648DFF8A0C0036859
:102C1000002FCCBFC7F38B010021002DC8BFC5F327
:102C20008B0203F1010505604FEA834000F47C004C
:102C30004FEA98284FEA0424DCF800501A4F40EA83
:102C4000086004F4003440EA0400C5F30B0E40EAC7
:102C5000893040EA010047F83E0007EBCE07D8BFB5
:102C6000002201357A60CCF80050B7E700A00040A0
:102C7000701D0020D01D002000A00140D41D0020A8
:102C8000E01D0020DC1D00206C1E002000700040B4
:102C90005CBB0020CE050020E41D00206001002068
:102CA000D81D0020701E00207C1E0020781E0020F1
:102CB000074B0022C3F84021D3F84021D3F8402528
:102CC00002F50072C3F8402502480CF02FBD00BF8A
:102CD00000A001409808002038B5012200210720FB
:102CE00006F014FE404C002201211A2006F00EFED0
:102CF000FFF76CFEFFF79CFE01230022C4F80035AD
:102D0000C4F81021D4F81021E36042F210714FF49E
:102D100088700FF093FE40B13448036813F0060F3B
:102D200003D0334A022110F095FE324B324D01217F
:102D30000020C4F800055960D960D3F8042522F0BA
:102D40000302C3F80425D3F8082542F00302C3F8B0
:102D500008254FF4A072C3F81005C3F8402570226F
:102D6000C3F84425D3F800220A43C3F8002203F530
:102D7000A833224AC3F81025A2F54552C3F81425FA
:102D80001F4AC3F81855C3F81C455160D160D2F8EA
:102D9000044524F003040C43C2F80445D2F8084566
:102DA00044F00304C2F808450832C3F82055C3F8BC
:102DB0002425C2F8FC1F02F6F872403242F8341C97
:102DC000D2F8C41421F00301C2F8C414D2F8C81414
:102DD00041F00301C2F8C814C2F8D004C3F8285562
:102DE000C3F82C2538BD00BF00700040300700201C
:102DF000CDA9010000A000400471004044A10040A2
:102E000000A001402DE9F843DFF8649143484FF0FA
:102E1000FF334FF0FF320CF091FB99F8003003F0D4
:102E2000FF051BB1FFF774FE002063E03C4FFFF786
:102E3000CDFDFFF7FDFD3B4BC7F82C364FF00208E8
:102E4000394BC7F830860124C7F800451A68374B5C
:102E500037481A60374B1D60374B1D60374B1D607C
:102E6000374B1D60374B1D60374B1D60374B602261
:102E700029461D6015F03EFD3548364E0CF0B0FC7D
:102E8000354BDC601C6003F580430822C3F8042541
:102E90004FF40072F460C6F84025C6F84051D6F8E9
:102EA00040214FF48032C6F804231A2006F0FEFCBD
:102EB00034600720C7F8048306F0F8FC3C604FF448
:102EC0007A714FF480700FF0B9FD244BA0B1244803
:102ED00003685B0703D0234A214610F0BBFD07209F
:102EE00006F0F2FC0E4B0022C3F80025FFF710FE9F
:102EF0006FF07300BDE8F8830422C3F80425C3F81B
:102F00000485C3F80445184B1A68184BC3F84025CC
:102F1000DC601C6089F8004084E700BFA80700203F
:102F2000007000405CBB0020781E0020741E002052
:102F3000701D0020701E00206C1E0020E01D00206F
:102F4000DC1D0020D81D0020D41D0020D01D002035
:102F50009808002000A0014000B0014000F00140AE
:102F600030070020EAA901006001002000A0004015
:102F70006CBB00202DE9F041DFF8A08021484FF024
:102F8000FF334FF0FF320CF0D9FA98F800301BB93C
:102F9000BDE8F041FFF7BCBD1B4B1C4D1C4E01248E
:102FA0005C600223C6F808450027C6F808350720EC
:102FB000C5F8083306F088FCC5F81471D5F814314B
:102FC000AC604FF47A714FF48A700FF037FD042330
:102FD000C5F80075C6F8083505F598350823C6F814
:102FE00008354FF48033C5F808331A2006F06CFC1E
:102FF000084B6C605C6088F8007007480CF096FB2A
:10300000C6E700BFA807002000A0004000700040F5
:1030100000F0014000B00140980800206CBB002087
:10302000014B1878704700BF6CBB002002460B466E
:1030300001480CF0AFBB00BF9808002010B50C4B46
:103040000C4A19681468081BB0F5805F0ED96FF43C
:103050002063184420F4FF7323F001032344064C3B
:103060001360A26802EB5022A260C81A10BD00BF14
:10307000781E0020741E0020E41D0020F8B50D46C7
:103080000446FFF7DBFFA842014628BF2946154D3D
:10309000154E2B680020271D81420DD113490A6867
:1030A000D21AB2F5805F124A15D993680133936042
:1030B0000B682B600020F8BD1A18C2F30B0206EB58
:1030C000C20C56F8322044F83020DCF8042047F8CF
:1030D00030200130E0E703442B60136803441360A1
:1030E000E9E700BF741E00207C1E0020781E00202F
:1030F000E41D002010B511498822044615F0D3FBC9
:103100000F4B104901221A64D3F8403523610E4B4E
:103110001B6863610D4B1B68A3610D4B1B68E3616A
:103120000C4B1B6823620C4B1B68636204F1280084
:103130006022BDE8104015F0B6BB00BFE41D0020C2
:1031400000A00140701D00206C1E0020E01D00202A
:10315000DC1D0020D81D0020D01D00202DE9F047E7
:103160001F46A2F5A073B3F5755F06460C4646D818
:10317000DFF89080C8F80020FFF744FE054640B114
:103180004FF4A073C8F800306FF073052846BDE80F
:10319000F0874FF47A7909FB06F60CB315F09EFA26
:1031A000A0FB090309FB0133C00B40EA4344CA46B4
:1031B00015F094FAA0FB0A0309FB0133C20B42EAA3
:1031C0004342121BB24209D3FFF7D4FE4FF4A0735F
:1031D0003846C8F80030FFF78DFFD7E700BFE7E7B4
:1031E00029464FF4004440F2E7304FF47A7200234E
:1031F000E6FB0401FEF790F915F090F9E4E76FF0B3
:103200001505C3E76001002007289DBF024B187019
:1032100000206FF015007047D0050020014B187892
:10322000704700BFD005002007289DBF024B1870D3
:1032300000206FF015007047CF050020014B187873
:10324000704700BFCF050020024B187880F00100C6
:10325000704700BF6CBB002002488822002115F097
:1032600049BB00BFE41D0020024AD3680133D3608C
:10327000704700BFE41D0020014B1870704700BF6D
:10328000CE050020014B1878704700BFCE05002006
:1032900006282DE9F34782460F46904637D8B1B34A
:1032A0004FF0FF331B484FF0FF320CF047F91A4B39
:1032B0001B7803F0FF053BB1FFF72AFC6FF00F040A
:1032C000204602B0BDE8F087144B2E4603EB0A1AE5
:1032D000A94601AA00215046FFF7D0FB044688B951
:1032E000019B01359E1949EBE379AF42F1D1FFF71C
:1032F0000FFC3A46234630464946FEF7BDF8C8F86B
:103300000000DDE7FFF704FC6FF07304D8E76FF00F
:103310001504D5E7A80700206CBB0020549A0100D3
:10332000024B0360024B0B60704700BF0000E1449A
:103330000000A040062873B504460E462FD84FF073
:10334000FF331A484FF0FF320CF0F8F8184B1B7897
:1033500033B1FFF7DDFB6FF00F04204602B070BD04
:10336000144D05EB041501AA08212846FFF786FB3A
:103370000446FFF7CDFBACB9DDED017A95ED027A9D
:10338000F8EEE77A67EE877A9FED0B7A67EE877A39
:1033900095ED037A67EE877AC6ED007ADDE76FF088
:1033A0001504DAE76FF07304D7E700BFA807002021
:1033B0006CBB0020549A01000000003902460B4605
:1033C00001480CF0BBB800BFE407002001480CF036
:1033D00027B900BFE407002030B52DED028B9FED2B
:1033E000168A83B004468DED018A0025F1EE088A25
:1033F000607801A9FFF79EFF002810DBDDED017A60
:103400008DB137EEC88AB0EEC88AB4EEE88AF1EE24
:1034100010FA08D8019B636001232373002003B0D6
:10342000BDEC028B30BD20690135B0EE678A0FF02C
:103430004DFB0C2DDCD1EDE700000000F8B52DEDC3
:10344000068B0446F0EE408AB0EE608AFFF7C4FFB8
:10345000054600286AD1DFED49AA1826B2EE00AA77
:1034600094ED019A78EEC97AB0EEE77AB4EECA7AB2
:10347000F1EE10FA5AD9B5EEC08AF1EE10FA59DD24
:1034800038EE6A7AB4EEC79AF1EE10FA52DDF5EE34
:10349000C07AF1EE10FA4DD56FF01F0167883944FC
:1034A000002961DDFF2961DC89B28F4261D02046AD
:1034B0000FF0D9FA00285FDB20690FF007FB2046E8
:1034C000FFF78AFF002857D16388DB1B2AD0D4ED91
:1034D000016AF0EE007A76EEC96AB0EEE67AB4EEF2
:1034E000E77AF1EE10FA1DDD07EE903AB8EEE77AD2
:1034F000C6EE877AF0EEE76AB6EE007AF4EEC76AB7
:10350000F1EE10FA0EDB9FED1E6AF4EEC66AF1EEE4
:1035100010FA9FBFD4ED026A67EE877A46EE877A8B
:10352000C4ED027A013E9BD16FF07305BDEC068BB2
:103530002846F8BD94ED027AC7EE879AB0EE690A84
:103540000FF0B4F910F11F0F0146A5DB18B12028C8
:10355000A8BF2021A2E7F5EEC09AF1EE10FACCBF89
:1035600001214FF0FF3199E700219EE74FF4807170
:103570009BE76FF02105D9E70546D7E70000A04299
:10358000000048432DE9F0472DED028BDFF89091C4
:10359000B9F8003007EE903AB3F5FA6FF8EE678AA3
:1035A00000AF1ED941F2873293421DD803F5FA735A
:1035B00007EE903AB8EEE78A524EC0B90123B0EE5A
:1035C000480A514833700FF057FA5048B0EE680A75
:1035D0000FF052FA04462046BD46BDEC028BBDE812
:1035E000F0879FED4B8AE7E79FED4A8AE4E7474D76
:1035F0002B7B002B6BD0D5ED017AF4EEE87AF1EE5F
:1036000010FA4CBF012400240120FEF7E3FADFF892
:1036100014A1012180460846FEF768FA9AF80030A6
:103620002BB90220FEF7E8FA02200FF04FFA002C27
:103630004FD0DFED390A3448B0EE480AFFF7FEFEFE
:10364000044610B110F1220F08D12F4B2F48D3EDB3
:10365000010AB0EE680AFFF7F1FE04469AF800305E
:103660001BB94FF0FF30FEF7C7FA44B9264B274885
:10367000D3ED010AB0EE680AFFF7E0FE04464146CA
:103680000120FEF733FA002314F1220F3370A2D188
:103690002248026812F0060F9DD0D5ED017A6988A4
:1036A000B9F800606D468AB0FDEEE77A6A46DFF849
:1036B00078C008910521CDE905C6CDED077A42F81D
:1036C000101F4FF4225102F077FEAD4683E701242C
:1036D0009AE70D4B1A7B8AB1D3ED010A0B48B0EE85
:1036E000680AFFF7ABFE044610B110F1220FB5D106
:1036F000DFED090A0448B0EE480AACE7DFED060A40
:10370000ECE700BF6DBB00206401002078010020C1
:1037100000401C4500E0AB450000000020070020F1
:10372000CC0500206EBB002007AA010008B50021CF
:103730000220FEF7DBF901210320FEF7D7F90C4840
:1037400041880FF090F90B4841880FF08CF9142054
:103750000FF0BCF901210846FEF7C8F9FFF760FC3D
:1037600080F00100BDE80840C0B2FFF70BBF00BF0A
:10377000640100207801002038B5FEF7C7FD05463A
:10378000FEF788FA041E35DBB5F88C3041F288323A
:10379000934228BF1346B3F5487F1B4A38BF4FF406
:1037A00048734FF0FF304FF0FF311380FFF706FEF4
:1037B000FEF7B6FD00BBB5F89210144B032019803C
:1037C0000024FEF77FFA124B214620461C70FEF7BC
:1037D0008DF94FF4404200230E480CF0ABF995F8F8
:1037E00090200D4B022A09D11A70FFF79FFF044663
:1037F000FFF7ECFD204638BD1821DEE701221A70E4
:103800000FF077F9F4E700BFCC05002060BB002083
:103810006EBB002030000020D105002038B5431ECB
:10382000012B044620D8124D4FF0FF304FF0FF31EE
:10383000FFF7C4FD2B78A34214D0022C2C700DD1BD
:10384000FFF774FF0446FEF761FD2B7880F8903097
:10385000FEF7C2FDFFF7BAFD204638BD0FF049F96B
:103860000024F0E70024F5E76FF01504F4E700BF4B
:10387000D105002038B541F28833984228BF184658
:1038800004464FF0FF314FF0FF30FFF797FD104B2C
:10389000104D1B78B4F5487F38BF4FF44874022BA5
:1038A0002C8012D1FFF7BCFB80F00100C0B2FFF703
:1038B00069FE0446FEF72AFD2B88A0F88C30FEF73F
:1038C0008BFDFFF783FD204638BD0024F2E700BFE3
:1038D000D1050020CC050020014B1878704700BFAF
:1038E000D1050020014B1888704700BFCC0500208F
:1038F000014B1878704700BF6EBB002008B54FF031
:10390000FF304FF0FF31FFF759FD074B1B7833B104
:10391000064B1B78022B02D10120FFF733FEBDE8D6
:103920000840FFF753BD00BF6DBB0020D10500204C
:1039300010B5014604460320FEF7C4F908B9014B4F
:103940001C8010BD60BB00202DE9F0472DED028BDF
:10395000DFF81091DFED428AB9F8005082B080465E
:103960000E462827B1EE008A6A4630210020FFF774
:103970008FFC00286CDB009BA8EB030A0AF1020312
:10398000042B6AD907EE90AAB8EEE70A80EE080A7F
:103990000EF08CFF10F10F0F04464EDB48B11028DB
:1039A000A8BF10242C44002C07DC002408E0254686
:1039B000DAE7BAF1000F43DD6C1CFF2C43DCA4B244
:1039C000AC4243D021460320FEF77CF900283FDBC0
:1039D00003200FF07BF801AA30210020FFF758FCEC
:1039E000002835DBDDE900239B1A83EAE372A2EBB2
:1039F000E372012A1ADD651B07EE903A07EE105AB2
:103A0000F8EEE77AB8EEC77AC7EE876AF0EEE67AA4
:103A1000B5EE007AF4EEC77AF1EE10FA06DBF4EEBA
:103A2000687AF1EE10FA98BFB0EE668A013FBED117
:103A3000A9F80040348000200AE06FF00F04B1E7DD
:103A40004FF0FF34AEE74FF48074B9E76FF0210018
:103A500002B0BDEC028BBDE8F0872C46E8E700BF62
:103A60000000C84360BB0020F0B583B000AF04463F
:103A7000FEF750FC38B3FEF749FC90ED0A0A0EF051
:103A800015FFB91DFFF760FF0346C8B90F4802686C
:103A900002F00702022A13D96D468AB0F9886A46F5
:103AA0000B4E07914FF40071ADF820100949CDE994
:103AB000056442F8101F4FF4135102F07DFCAD462F
:103AC0000C37BD46F0BD6420DBE700BF20070020B7
:103AD0003AAA01000400000110B50446FFF7A0FA5D
:103AE00038B9044B1B7823B92046BDE81040FFF7D6
:103AF000BBBF10BD6EBB00200148FFF7EDBF00BF8C
:103B00009DB9010038B54FF0FF3104464FF0FF304A
:103B1000FFF754FC0A4D44B12B7833B9094B1B789D
:103B2000022B02D10848FFF7D7FF214600202C7056
:103B3000FDF7DCFF0446FFF749FC204638BD00BF17
:103B40006EBB0020D10500205EAA010038B50546F5
:103B50000C464FF0FF304FF0FF31FFF72FFC1E4BAC
:103B60001B782B701D4B1B886B801D4B1B782B719A
:103B70001C4B1B786B711C4B1B88EB801B4B5B88B1
:103B80002B811B4B5B886B81FEF778F8194B2877EC
:103B9000AB616B612B61EB60D4B105F10C010220CC
:103BA000FFF7C8FB044698B905F110010320FFF7A1
:103BB000C1FB044660B905F114010420FFF7BAFB0C
:103BC000044628B905F118010520FFF7B3FB0446A8
:103BD000FFF7FCFB204638BDD1050020CC050020B6
:103BE0006EBB00206DBB002060BB00207801002070
:103BF000640100200000C07F08B54B781BB900F0BD
:103C00000BFA002008BD06F01FF8024B6FF085028A
:103C10001A50F6E70C00000008B513464A78212A2E
:103C20000BD1CA880169072A28BF0722083103F18E
:103C30000C0011F0BEFA002008BD06F005F8024B9A
:103C40006FF085021A50F6E70C00000030B54B7893
:103C5000072B87B00C46154608D0082B15D005F069
:103C6000F3FF0D4B6FF085021A500BE0684600F031
:103C7000B5F9E288182A28BF1822694605F10C0018
:103C800011F097FA002007B030BDCA880349132A03
:103C900028BF1322F2E700BF0C00000016D7010076
:103CA000F8B507690B7E16463A680C4692F83D1047
:103CB0009942054616D136B9218A21B1104B1B68AD
:103CC0000BB1E0689847204606F0BEFC012107F1E1
:103CD00014000EF03EFF713602D028460EF049FF68
:103CE0000020F8BD92F836209A42204605D106F011
:103CF000ABFC04480BF01AFDF2E706F0A5FCEFE779
:103D0000809E0020C8080020024B1860024B1960FA
:103D1000704700BF809E00207C9E0020064BBFF3B2
:103D20005B8F1868BFF35B8F10F001001CBF33F886
:103D3000040C00F001007047D401002010B5044BC2
:103D40001A6822B1FFF7EAFFBDE81040104710BD26
:103D50007C9E002038B50369BFF35B8F044603F1F6
:103D6000140050E8003F43F0010340E80032002A0D
:103D7000F7D1BFF35B8F01210EF0EBFE07480BF08C
:103D80002FFD042505480BF0D1FC013DFAD120465A
:103D90000EF0EFFEBDE83840FFF7D0BFC8080020A6
:103DA00008B503694878202808D0222812D005F0E9
:103DB0004BFF0B4B6FF085021A5009E0C9880729A9
:103DC00006D1D268116899609188998192799A7325
:103DD000002008BD4A881A82FFF7B0FFF8E700BF4D
:103DE0000C00000070B50C461F49064691F836508D
:103DF0001E49BFF35B8F0968BFF35B8FC9072DD5E1
:103E00001B480BF0C7FC60BB29461A48224612F03B
:103E100081F8054630B916480BF088FC6FF00B04AA
:103E2000204670BD224631460C3004F03F0411F0AC
:103E3000C0F9B4FA84F46B7E0E48640964F3C303DA
:103E40006B76294612F06AF804460028E8D0284626
:103E500006F0FAFB06480BF069FCE1E76FF07F041F
:103E6000DEE76FF00A04DBE7E0050020D401002064
:103E7000C8080020AC01002037B54FF080520D215A
:103E8000D2F8A830D2F8A42000929BB2424A43480C
:103E9000434D43F440430DF019F94048FDF768FBEA
:103EA0000130400028753F493F4811F0C6FA0446EA
:103EB00088B93E493C4811F0C0FA044658B93C491B
:103EC000394811F0BAFA044628B93748294611F0A2
:103ED000B4FA044638B1374803685B074CD0364A19
:103EE0002346012146E00146344A2F4811F08CFD5B
:103EF000044630B12F4803685D073DD0304A234661
:103F0000EFE702462F492848012311F057FE0446E7
:103F100078B902462C492448012311F04FFE04468B
:103F200038B9024629492048012311F047FE0446CA
:103F300030B12048036859071ED0254A2346D0E7F0
:103F40000123EF22014600931748022311F07FF965
:103F50004FF48171144811F064F9134811F0A0F97D
:103F6000044660B1134B1B685A0705D0194A034633
:103F7000104801210FF077FD204603B030BD0A48FC
:103F800011F0BEF904460028F6D00A4803685B0722
:103F9000F2D0114A2346A4E772AA01006FBB0020A9
:103FA0001802002078020020100900206002002082
:103FB000480200204C0700207BAA010004020020D8
:103FC00092AA0100A4AA0100ACAA0100B5AA0100AE
:103FD000BFAA0100D6AA0100E4AA01000C4B0360AD
:103FE00001220C4B027202224360827200231022D3
:103FF0004372C372037343738373C3730374437451
:104000008274C374037542758375C375704700BFAE
:1040100000100000BCD1010010B50948036803F08E
:104020000703022B03D9074A03210FF013FDBDE854
:104030001040054840F6CD4200230BF07BBD00BF89
:10404000E006002005AB01006000002007B500235A
:10405000CDF803304FF4FF73ADF800308DF8020057
:10406000002200236946034814F012F803B05DF8FB
:1040700004FB00BF4808002038B51E4D41F69A10D9
:104080000021FEF7D3FFFEF7D9FF0446FEF7C8FF75
:10409000002CF3D0B4F5007F01D20028EED1B4F5A6
:1040A000007F2146144828BF4FF40071FEF7E6FF59
:1040B00004460028E2D02B78002BE4D04FF0FF32EA
:1040C0004FF0FF330D480BF039FAE1004FF4005286
:1040D00000230948FFF786FE044608480BF0A0FAC3
:1040E00014B9FFF7C1F8CEE7054A9368013393602E
:1040F000C9E700BF84C30020849E0020340800204C
:1041000084AE0020F8B51E4F1E4C05464618AE4240
:1041100000D1F8BD3B7815F8011B2BBB252903D82E
:10412000194A5256002A04DA184A53680133536078
:10413000EDE763704FF0010321703B70E7D100237E
:104140003B70104912480022002313F0A1FF002801
:10415000DDD01048036813F0060FD8D023780E4A3C
:1041600002210FF080FCD2E76278531C2244DBB2BC
:1041700091702278044963708A569342DFDAC6E769
:104180007CC300207DC3002052D7010084AE0020F4
:1041900048080020280700201FAB0100024A0348FE
:1041A00003210FF057BC00BF42AB010028070020DD
:1041B00008B50A4B1A787AB100221A70FEF7DAFEB7
:1041C000FFF79CFB064B1B6803F00703022B03D988
:1041D000BDE80840FFF7E2BF08BD00BF84C3002070
:1041E00028070020F0B52DED028B744D83B0744884
:1041F0004FF0FF324FF0FF3369460BF03BF90446B6
:104200000028F4D12B6801332B609DF80030112B6E
:1042100020D8052BEBD9063B0B2BE8D801A252F88E
:1042200023F000BF914200008B420000EF410000EC
:10423000EF410000EF410000EF410000CB420000E1
:10424000DB420000EF410000EF410000EF410000C1
:10425000E9420000252B00F0888010D8192B48D0A7
:10426000202BC4D1FFF7A4FF2046FFF74BFC40F6FC
:10427000CD40002114F052F9012001F077FAFE2B15
:10428000B5D19DF80230002BB1D1FFF791FFAEE719
:104290004C4C2378002BAAD1FEF7B4FD03464A48C4
:1042A0000268002B02F0070206DA002A9FD0474A74
:1042B00001210FF0D8FB9AE70123022A237096D937
:1042C000434A03210FF0C6FB91E79DF80200003836
:1042D00018BF0120FFF716FC89E7BDF8020040BABD
:1042E00080B2FFF7C7FA82E79DF80200FFF796FA5F
:1042F0007DE7FFF75DFF37484FF40061FEF7CAF82E
:10430000044638B9304803685B073FF470AF324A5F
:104310000121D7E731482F4F4FF0FF324FF0FF33E5
:104320000BF00CF9B4F5806F264628BF4FF4806679
:1043300000234FF4804231463846FFF753FD0346D1
:1043400078B1AA6820480132AA60026812F0060F0C
:1043500003D0234A02210FF086FB20480BF060F9BE
:1043600045E7A41B3744DDD1F7E79DF80240042C54
:1043700011D8DDF80330DFED1B7A08EE103AB0EE0D
:10438000C87AB4EE677AF1EE10FA04D8B5EEC08AB6
:10439000F1EE10FA09D80C48036813F0060F3FF449
:1043A00026AF114A2346022183E7FDF7AFFF00EB5A
:1043B000840080ED1E8AFEF70FF818E784AE002017
:1043C0004808002084C30020280700204AAB0100D1
:1043D00064AB01007CBB00206EAB01003408002000
:1043E0008FAB0100FFFF7F7FA8AB010008B5034939
:1043F0000348FFF789FC002008BD00BF4D400000C6
:1044000005410000014B1878704700BF84C30020AD
:10441000024A034607CA83E80700704784AE0020BB
:1044200030B403460A460D4881688C687CB90C6834
:104430000CB14D681DB930BC70472B4605E0642AAD
:10444000F9D81946002AF8D0234630BC1847642A08
:10445000F1D81946234630BC184700BF6C900100C4
:10446000F8B5234C237833B300256426FFF740FAD0
:1044700000280CBF00271927FFF7C4FF044600B32C
:10448000B5FBF6F306FB1353312B88BFC3F164036E
:10449000372202FB03F13223B1FBF3F10531C9B23C
:1044A000002238460EF0ADFB0135002140F21F50CE
:1044B00014F034F8DAE7002140F21F5014F02EF81F
:1044C000D0E7FFF72BFC80B9B5FBF6F306FB1353DF
:1044D000312B88BFC3F1640317225A433223B2FB46
:1044E000F3F20232D2B20021DBE71E222146D8E7E6
:1044F00085C3002008B50C4813F0D1FC50B90B4817
:1045000003685B0703D00A4A01210FF0A3FA6FF09A
:10451000120008BD1422104611460EF072FB054B26
:1045200001221A700020F4E76C900100F8060020C8
:10453000EAAB010085C3002008B503490FF03BFD3D
:10454000FFF76AFD002008BD06AC0100F7B50C4678
:10455000642154F8243F134F03F00F024A43120919
:1045600000921B09104A082106460FF009FD00259C
:1045700054F8043F5BB10D4A172D08BF3A46CDE908
:10458000002308210A4A2B4630460FF0F9FC01357A
:10459000182DEDD1074A0821304603B0BDE8F040A0
:1045A0000FF0EEBC25AC010027AC0100C3BA01003E
:1045B00054AC0100C2BA01002DE9F0430129A9B0B1
:1045C00007460E46154625D90022686811460CF0AC
:1045D000A9FF022E804622D02649A868FCF7B6FF24
:1045E000032EB0FA80F44FEA541416D00022E86883
:1045F00011460CF097FF0646FFF704FF814680B195
:104600001D4938460FF0F3FC6FF00F05284629B01E
:10461000BDE8F08300244FF00208A026ECE7002458
:10462000FBE706AB324621464046FEF797FD051EE6
:1046300005DA12492A4638460FF0D9FCE6E70E9B08
:1046400005930D9B04930C9B03930B9B02930A9B76
:104650000B4A0C49CDE900630B4B3846002C08BFD0
:10466000134642460FF0A7FC06A93846FFF76EFF37
:104670004D46CBE76DAC010072AC01005AAF0100B2
:1046800068AC010088AC01005FAC01000129F8B5FD
:1046900005460F46164627D9FFF7B4FE044630B14B
:1046A000284618490FF0A3FC6FF00F00F8BD024632
:1046B000014670680CF036FFC0B2FEF7A5FD002879
:1046C00006DA284610490FF092FC6FF01500EDE76E
:1046D000022F09D022462146B0680CF023FFC0B259
:1046E000FEF7A2FD0028ECDBFEF798FD0446FEF77E
:1046F000A5FD06490346224628460FF05CFC002033
:10470000D4E700BF72AC010009AD01000FAD01009C
:10471000012910B51346044609D9002258681146EC
:104720000CF000FF003818BF0120FEF7A5FDFEF7D2
:10473000A9FD054B054A0649002808BF1A46204630
:104740000FF039FC002010BD5AAD010050AD010042
:104750006AAD01002DE9F041012986B006460D46FB
:10476000144629D90022606811460CF0DBFE022DA8
:10477000074622D0D4F80880254C002554F8041BA5
:104780004046FCF7E3FE60B10135072DF6D1214923
:1047900030460FF02CFC6FF01504204606B0BDE843
:1047A000F081EDB2FFF72EFE48B11B4930460FF005
:1047B0001EFC6FF00F04F0E740270025F2E704AA83
:1047C00039462846FEF764FD044620B905A90520B0
:1047D000FEF7B0FD0446002C05DA104922463046AB
:1047E0000FF005FCD9E7FDF72DFA04460598FCF714
:1047F000EBFD049B0093064B0197CDE90201224695
:1048000053F82530064930460FF0D5FB0024C4E7A5
:104810005C9B010084AD010072AC0100ADAD0100F4
:10482000C1AD01002DE9F04157680E4E0546002448
:1048300056F83410384606EBC408FCF787FE28B952
:1048400098F90400BDE8F041FDF7D6B90134052C14
:10485000EED1284604490FF0CAFB6FF01500BDE801
:10486000F08100BF349B0100F0AD01000129F7B5D4
:104870001346064612D90022586811460CF0DEFD98
:104880000546FFF7BFFD074678B1154930460FF0E2
:10489000AEFB6FF00F04204603B0F0BDFDF736FD10
:1048A00090ED0A0A0EF002F8EAE70DF1060128463B
:1048B000FFF74AF8041E05DA0A49224630460FF08F
:1048C00096FBE8E7FDF722FDBDF80620A0F8922050
:1048D00005492B4630460FF06EFB3C46DBE700BF38
:1048E00072AC01000DAE01001EAE0100F8B513461A
:1048F00000221146054658680CF014FE87B20646A1
:104900003846FFF715F8041E06DA094922462846FC
:104910000FF06DFB2046F8BDFDF7F8FC0549A0F847
:104920009270B2B228460FF046FB0024F2E700BFB7
:104930005AAF010069AE010038B513460022114696
:10494000054658680CF0EEFD003818BF0120FFF74F
:10495000D9F8041E04DA0349224628460FF047FB23
:10496000204638BD5AAF010038B513460022114623
:10497000054658680CF0D6FD80B2FEF77BFF041E9A
:1049800004DA0349224628460FF031FB204638BDA1
:104990005AAF010038B554680F4905462046FCF768
:1049A000D5FDA8B10D492046FCF7D0FD90B10022FD
:1049B000114620460CF0B6FDC0B2FEF72FFF041ED4
:1049C00004DA0749224628460FF011FB204638BD7D
:1049D0000220F2E70120F0E7DDB301001EA701008D
:1049E0005AAF010070B556681B4905463046FCF7C2
:1049F000ADFD50B9FDF7F8FC0028044627DA024661
:104A0000164928460FF0F3FA10E015493046FCF736
:104A10009DFD044660B90EF009F8124A124B134985
:104A2000002818BF1A4628460FF0C5FA204670BD68
:104A30000F493046FCF78AFD10B9FDF703FDDBE7AF
:104A40000C4928460FF0D3FA6FF01504EEE70A4937
:104A500028460FF0B0FAE9E7A5AE01005AAF010011
:104A6000ABAE01009FAE01009BAE0100B1AE0100F4
:104A7000EDB40100BFAE0100D8AE010010B5044690
:104A8000FDF712FA204602490FF095FA002010BDFA
:104A9000DCAE010038B50546FDF748FC041E06DA19
:104AA0000549224628460FF0A2FA204638BD0349A0
:104AB00028460FF080FAF8E7F6AE010007AF0100D4
:104AC00070B50646D2E901011546FDF791FE041EB8
:104AD00005DA064930460FF08AFA204670BD6A684A
:104AE000034930460FF067FA0024F6E70EAF0100E5
:104AF00028AF01002DE9F043012985B007460E4695
:104B0000144610D90022606811460CF00BFD022EED
:104B100005460BD00022A06811460CF003FD0446A8
:104B200034B9264615E0A0240025F9E7A024F7E7CC
:104B3000102CA04628BF4FF0100842466946284670
:104B4000FDF730FF061E08DA1249324638460FF0EC
:104B50004EFA304605B0BDE8F0830F4A2B460821D7
:104B600038460FF00DFA6E464FF0000916F8013B7B
:104B70000A4A0821384609F101090FF001FAC8452F
:104B8000F4D1074A082138460FF0FAF94544A4EB5E
:104B90000804C5E755AF010066AF01006CAF010026
:104BA000C2BA010010B54FF4006104460848FDF791
:104BB00071FC30B9204607490FF019FA6FF0040074
:104BC00010BD2046024A04490FF0F5F90020F7E72E
:104BD00086C3002072AF0100BBAF0100F0B5B5B0D5
:104BE0000446FFF70FFC80F00101C9B205460AA890
:104BF000FEF7ACFF12A8FEF77DFA07A8FFF708FC46
:104C00009DF82820504B5149022A08BF19460A46F0
:104C100020464F490FF0CFF99DF82D204D494E4BBE
:104C20002046002A08BF0B46BDF82A204B490FF04A
:104C3000C2F99DF82C204A4B4A49002A18BF194650
:104C40000A46204648490FF0B6F99DF84420474BE4
:104C50004749002A18BF19460A46204645490FF021
:104C6000AAF9BDF83230BDF82E2043490093204602
:104C7000BDF830300FF09FF9FCF7E4FF3F490246E2
:104C800020460FF098F9FDF745FB3D4A3D4B3E4964
:104C9000002808BF1A4620460FF08DF9002D4DD18F
:104CA0000D98FCF791FB064610980F46FCF78CFB1D
:104CB000CDE904010F98FCF787FBCDE902010E98BE
:104CC000FCF782FB3246CDE900013B462F492046E6
:104CD0000FF071F92E4A159B2E4900932046129B26
:104CE0000FF069F9DDE91667FEF798FA0546FEF759
:104CF000A5FA3B46CDE900503246204626490FF042
:104D00005AF91A9B00932046DDE9182323490FF036
:104D100052F912A92046FFF719FC099B009320467F
:104D2000DDE913231E490FF046F92046DDE907238C
:104D30001C490FF040F9002035B0F0BD1A4920465B
:104D40000FF039F9194AC6E7DDB301001EA70100CB
:104D5000B1AF0100C3BA010081AF0100BFAF0100D4
:104D60009CB8010082B30100D2AF010093AF0100F3
:104D70009BAF0100E0AF0100EEAF01000CB00100FD
:104D8000A2AF0100A6AF01001AB0010029B00100D6
:104D900042AB010084B00100AEB00100F3B00100ED
:104DA00041B1010083B101005DB00100A9AF010074
:104DB0002DE9F0478A4600AF00297AD004680E1F1B
:104DC000361BF50826F0070604EB0608B8F8023093
:104DD00013F0010319D13848026852070DD0E94693
:104DE00088B06A463549CDE9051A032142F8101FFB
:104DF0004FF4C25101F0E0FACD46002383F311884D
:104E0000BFF36F8F0423184602DF294620460DF0BA
:104E10000EFF284434F83030C01A85421AD0264894
:104E2000036859070ED0E94688B06A46244BCDE99D
:104E3000053A032342F8103F00234FF4C25101F01A
:104E4000BBFACD46002383F31188BFF36F8F042391
:104E5000184602DFB8F8023023F00103A8F8023048
:104E6000294620460DF0E3FE05EB000804EBC803DD
:104E70005B88DA0708D4414620460DF021FF424600
:104E8000294620460DF061FFA65BAE1B04EBC6036E
:104E90005B88DB0709D4314620460DF011FF2A4616
:104EA000314620460DF051FF3546294620460DF08B
:104EB000C3FEBD46BDE8F0871C07002042B50100D7
:104EC00019B501002DE9F04F91B08407009302F06D
:104ED00004030293C2F3C20303F10103DDF868A0E7
:104EE000039205460E46059340F09D81041D00285F
:104EF0004AD101F00706341DC6F10806009B0027C1
:104F00005A1E4FF004084FF0FF3301930497B9463F
:104F1000BB4643460DB1009820600598002800F379
:104F2000D78090480099814203D38F488142C0F0D6
:104F3000CF80039911F0020CA4EB050040F0D6805D
:104F4000B9F10F0F00F2CF80002D00F0D68009F1EB
:104F500040010DEB010EC0F3870001990EF8200C03
:104F60000EF8101CBCF1000F00F0C38060F07F0051
:104F70000EF8200C013709F10109C5F108010434CC
:104F800006914FF6DA7E8CE00729B7D86FF01B0048
:104F900011B0BDE8F08F7A285BD84B280FD847288E
:104FA00057D829282ED8252850D052D8202818BFC5
:104FB00023280CBF4FF0010B4FF0000B71E04C3871
:104FC0002E2846D8DFE800F06D4545454545454566
:104FD000454545454845454545454545455645486A
:104FE000485656566D486A456D4518481845457FE0
:104FF0007C48454548457C0000204FF0000B4FF0B1
:10500000040835E02A38C0B2012101FA00F010EAA4
:105010000E0F46D110F0625C2CD110EA010B40D08B
:105020006046013C4444B4FBF8F408FB04F425B1A9
:10503000A3EB050CA444B445A8D8002870D005986B
:10504000013805905AF8040B009063E70199013983
:1050500001914FF0000B24E012F8010C6C2834D1C0
:1050600012F8023C00206C2B8346C8D14FF0080890
:105070004346D6E70AF1070A2AF0070A0734BAECD2
:10508000027B24F0070435B106982044B0423FF675
:105090007DAF84ED007B08344FF0000B4FF0080823
:1050A000434612F8010F002853D0BBF1000F7FF4E4
:1050B00072AF2528F5D1019B013301934FF0010B0D
:1050C0004FF00408ECE7584697E700208346A8E72E
:1050D000039988077FF551AF601B4FF0010CB0F5C5
:1050E000007FFFF42DAF6FF0150051E74FF0000C7B
:1050F000F5E70498013004903DE7BCF1000F01D0C2
:10510000013638E70299023600297FF434AF00985F
:10511000CDE90632FCF72CFADDE9063206442AE72F
:10512000042B08D10AF1040015B1DAF8001021604F
:1051300004348246B5E70AF1070323F0070303F1BD
:10514000080A1DB193ED007B84ED007B0834082331
:10515000A7E7631BB3F5806FC5D23DB9A6F108047C
:10516000E01815E7BC8E0100E4D70100029A286020
:105170009B082B709DF81030AAB1EB70AF702FB167
:1051800008A80022C5F1010C91450ED1C5F101031B
:105190000DF120084FF0000A01930DF1300BD145BD
:1051A00012D1601BF4E66B70E8E710F8013B1906BA
:1051B00008D50CEB040EB64503F07F033FF6E6AED0
:1051C00004F8013B0132DFE71FB198F90020002A03
:1051D00017DB029BD3B11AF80B2004F8012B002235
:1051E000019B18191044B0423FF6D0AE98F8000069
:1051F00004F8010B00990392204613F054FB039A24
:1052000014440AF1010A08F10108C8E798F80020DF
:1052100055F822300093029B45F822300098FCF7A5
:10522000A7F9421CDCE76FF00D00B1E62DE9F04F65
:1052300097B000AFC7E90A3205468A4649B90378F4
:105240004678807800EB83002844564524D8A0EBAC
:10525000050AD7F8803095F80280D7F8804003F02F
:105260000103FB61EB787B62B8F1000F0CBF0024F7
:1052700004F001041BB1D7F880309A0715D4A4B903
:10528000FB6A1BB1BA6A51462846984756463046D3
:105290005C37BD46BDE8F08F441C2046FCF768F93A
:1052A000013020440AF1010ACFE7D7F88030C3F378
:1052B000C0033B622B78BB619B003B616B687B61E9
:1052C000BB6905EB830BFB6A002B7BD15646D844A8
:1052D000BCB11C461BF8013B55F82300FCF748F90C
:1052E000D7F88430013043B1D7F88830A34282BF69
:1052F000D7F8843023F814000134C3450644E9D1BB
:10530000D846D7F8803013F0050F0CBF4FF0020BD2
:105310004FF0010B4FF000097B6A9945B7D298F81E
:10532000013055F823A0B14B9A4508F10208C0F0AE
:105330005081AF4B3A6A9A452CBF002301232AB310
:1053400018F8021C7869FB620DF045FEFB6AE8B1B3
:10535000A848036813F0060F14D0EA468AB06A46DC
:10536000A54B05937B69CDE906314FF40073ADF889
:105370002030A24B42F8103F00234FF4125101F0AD
:105380001BF8D546023E09F10109C5E723B1FB69C7
:1053900033B9A6EB0B06F6E7D7F880309B07F2D5BA
:1053A0005046FCF7E5F8D7F884304BB1D7F8883091
:1053B0009C423FBFD7F88420431C22F814300134AC
:1053C0000644E0E7002C69D1B8F1000F6CD0D7F8A3
:1053D00080305E076BD5C14607F14800424659460A
:1053E00013F061FA0BEB0803FB6000220233796AC9
:1053F0008A425ED3D7F8802095F801B0F969920708
:1054000004EB0B03DBB254BF4FEA59020022002920
:1054100040F0A780D7F8801011F0040F14BF494660
:1054200000216B70A970EA703969BA6AFB6A284674
:105430009847061EFFF62BAFBB692B707B6AEB709B
:105440004946BA6AFB6A85F801B085F8028007F11F
:1054500048009847B0F10009C0F2B7803B697A6A0A
:10546000786A03EB4201FB68BA6A414403EB4000EF
:10547000AAEB0101FB6A98470028C0F2A880B1445A
:1054800009EB00064FF0000B07F1380AA3456AD379
:105490000021BA6AFB6A08469847F8E6444607F1D5
:1054A00038004FF0000999E74446C1469AE7A14603
:1054B00098E713F8016C13F8021C55F82600B96040
:1054C0004A498842C0F08B8049498842396A2CBFDA
:1054D0004FF0000B4FF0010B41B1B9687869C7E993
:1054E00000320DF078FDD7E90032F0B9BBF1000FC2
:1054F0001ED0F96949B1611C04F1280007F130049C
:10550000041904F8206CCCB20FE0D7F880104807DB
:105510000BD509F1280007F1300C09F1010100EB6E
:105520000C0909F8106C5FFA81F9013202335EE769
:10553000D7F880108907DED409F1280107F1300C73
:105540008C44B9680CF8101C09F1010007F15801EE
:1055500051FA80F009F102095FFA89F900F8106C3C
:10556000E3E700215DE71BF80A3087F8373055F88C
:105570002390D7F884302BB3D7F888309B4521D2BD
:10558000D7F8843033F81B80BA6AFB6A012107F12F
:105590003700984700281ADB0644B8F1000F06D1FF
:1055A0004846FBF7E5FF00F101081FFA88F8BA6AE0
:1055B000FB6A414648469847002808DB06440BF141
:1055C000010B63E74FF00008DEE74E465FE6064654
:1055D0005DE63B6A002B3FF4DFAE0023B0E6396A9C
:1055E0000029A5D04FF0000B77E700BFBC8E01006B
:1055F000E4D70100D80600206FB5010004000001C7
:1056000030B50446EFF31185402383F31288BFF3CE
:105610006F8F044B0FCB84E80F0085F31188BFF325
:105620006F8F30BDD80C002001281FB50C4605D067
:10563000042822D06FF0150004B010BD13F04EF80E
:10564000174AC30BC0F30E00A0FB0202C00B43EAD3
:10565000414340EA4240C90BC4E90031A0606846BA
:10566000FFF7CEFF694620460DF0D2FC18B90D4B6E
:105670000FCB84E80F000020DEE713F02FF8084A74
:10568000C30BC0F30E00A0FB0202C00B43EA414370
:1056900040EA4240C90BC4E90031A060EBE700BF1B
:1056A00000CA9A3B1096010001287FB50C4633D101
:1056B0008A681B4B9A422FD813F010F8C20B42EAAB
:1056C000414252424FEAD13363EB4303CDE9002319
:1056D000144AC0F30E00A0FB0202C30B43EA42438C
:1056E0005B426846029300F0E3F8214668460DF0FD
:1056F0008FFCEFF31186402383F31288BFF36F8F83
:105700009DE80F00084C84E80F0086F31188BFF372
:105710006F8F002004B070BD6FF01500FAE700BF76
:10572000FFC99A3B00CA9A3BD80C0020014B186075
:10573000704700BF9002002080B505460E46174610
:1057400098460AF05BFE034604F07EFADFF81890F4
:10575000044649F80030424630463946A84754F8D6
:10576000090004F0EDF900BF0800000008B5044688
:10577000EFF31183402383F31288BFF36F8FEFF3AE
:10578000108372B608F002FC204604F09FFF034825
:105790000DF070FC0FF0A5FCFCE700BF23B6010084
:1057A0002DE9F84344690569C76840F26C73E11755
:1057B0000135E41841F10001022D8CBF00230123C3
:1057C000E41A61F100010029064607F1FF3751DABA
:1057D0006FF4C77020184FF4C8724FF0000361F1E6
:1057E0000001FBF749FE264B03FB0044D6E900838A
:1057F000B6684FEAE37C4FF03C0E99466346C6FB21
:105800000E93A9FB0EC60EFB0366A30840F26D1EA5
:10581000032D0EFB043302463B4434BF09206FF0D6
:10582000020064270544B4FBF7F499201B1B154CB8
:1058300045431CEB080C4FF0050005F10205B5FBD4
:10584000F0F5A2FB04202B4404FB010146EBE876B3
:1058500098180D4A41F1000380180C4A63F10003C7
:10586000A0FB020102FB031110EB0C0041EB06014F
:10587000BDE8F8834FF4C87200232046B1E700BFAB
:1058800070FEFFFFB13A02009405F5FF8051010060
:1058900010B5FFF785FF024604F0D6F90B46034921
:1058A000002444501046194610BD00BF0C000000F3
:1058B00070B5204B82689A4216DDD0E900160129A6
:1058C00076F1000503F1010392FBF3F34FEAE37471
:1058D0001DDAC91844EB0604C0E90014164901FB9F
:1058E00003238360012070BD002AFBDAD0E9004168
:1058F0000029124EA3EB0203B3FBF6F310DA01F119
:1059000000459C4275F100050ADA0020EBE7CD4323
:105910009D426FF00045A5EB0605A541D9DAF4E7F5
:10592000E41A61F1000106FB0322C0E90041826034
:10593000D8E700BFFFC99A3B003665C400CA9A3B4E
:1059400008B500F0B7F80A4941610A490122C0E9E7
:1059500000220A6008490A60084A00231360084AC6
:1059600003611360C0E90233064A136008BD00BF3B
:10597000C3BA0100B0020020AC02002098AE0020A3
:1059800094AE002090AE00202DE9F0478146884675
:10599000174600F08FF8C36804461BB943691A78AC
:1059A000002A3ED10023E36063684B4558F823206A
:1059B00008DB314B6361204600F060F84FF0FF30A8
:1059C000BDE8F087511C616192F800A0BAF12D0F7B
:1059D000EFD1951C65615678A6602D2E04D1927882
:1059E00072B901336360E4E756B9234D65615146EE
:1059F000384612F09BFF0028DDD0C4F808A05646B8
:105A00003146384612F092FF3A2E00D070B92B780A
:105A100013B9636801336360204600F02FF83F201C
:105A2000CEE75D1C45611E788660E9E743783A2B36
:105A30000BD0002323612B7813B9636801336360B3
:105A4000204600F01BF8A068BAE72B780A4A33B961
:105A5000636801339945636004DD58F82350C4E955
:105A60000452EAE762613D783A2D2046D5D100F034
:105A700005F82846A4E700BFC3BA0100084A016838
:105A80001160084A41681160074A81681160074A3D
:105A9000C168074B116002691A6004F01DBD00BFA8
:105AA000B0020020AC02002098AE002094AE00208E
:105AB00090AE002000487047940200202DE9F04786
:105AC000058B0446280717460CD501290CBF45F065
:105AD000100545F02005258387F31188BFF36F8FEC
:105AE000BDE8F087022905F0070540F094802046C4
:105AF0000DF053FD052864D801A353F820F000BF32
:105B0000D95A0000175C0000C35B0000855B0000F1
:105B10009F5B0000B15B000001F007035A1F012AE0
:105B20001FD8002221F00701062BD4F8008089B28B
:105B3000C4E9002209D1434603E0628B013262834B
:105B40001B68002BF9D141F00201218320460DF0A2
:105B500024FD4FF0000900286DD041F02001218381
:105B600069E0042B0AD121F0070189B22183204684
:105B70000DF013FD10B141F0200121834FF000081A
:105B8000C14658E02369D3F80090238B23F0070324
:105B900043F0060323834FF0000846464BE0236999
:105BA000D3F80490238B23F0070343F00403F1E7B9
:105BB0002369D3F80890238B23F0070343F00503F0
:105BC000E8E74FF00008C146E7E7012243F0080389
:105BD000238387F31188BFF36F8F002A3BD1B8F17D
:105BE000000F4AD1B9F1000F02D02D492046C84715
:105BF000EFF31187402383F31288BFF36F8F238B5A
:105C000023F008039BB22383D9063FD523F010026B
:105C1000228303F007056669218B002EBFF67CAF57
:105C20000023D4F8008021F00701C4E9003341F0DB
:105C3000010121839946238B03F0070AAA4502D06C
:105C4000A268002AC1D1B8F1000F02D1B9F1000F4A
:105C5000DAD00022BAE7A1680029C0D00D68002977
:105C6000BDD04F68334652462046B8471DB12B6819
:105C700029461D46F3E72B46FAE74146334652468E
:105C80002046D8F800800DF0B4FCA8E79A067FF50E
:105C900023AF23F02002228303F0070527E700BF8C
:105CA0001F3601002DE9F047DFF85480044607460F
:105CB0004FF0010994FAA4F5B5FA85F509FA05F350
:105CC0002E0108EB05156FEA030A24EA03042B7B77
:105CD00063B158F806301B696BB9464403227368F8
:105CE0002846196807EA0A070DF030FE002CE1D1BA
:105CF0003846BDE8F087284698470028F6D1ECE7FB
:105D00006C94010010B51049104888B0002212F0C0
:105D10002DFD4FF400320023CDE9062300240E238D
:105D2000CDE90334CDE90144094B0A4900944FF40D
:105D3000407209480AF06CF80849074809F09EFFCC
:105D4000204608B010BD00BF615D0000F0110020CA
:105D5000C160000080E10020E80C002057B601007F
:105D6000014809F0E3BC00BFB80800202DE9F04766
:105D7000804621480F460DF0C1FD0646002833D06D
:105D800000252846BDE8F087237B83B12368DB68C4
:105D90000BB120469847636883F8069023681B6917
:105DA000D3B963680322196820460DF0CFFD013690
:105DB00010345445E8D3B8F1000FE2D0002DDFD005
:105DC0002846FFF76FFF0546002FF7D000214FF45C
:105DD000A47012F0A3FBF1E7204698470028E0D01A
:105DE00009FA06F31D43E2E7044CDFF814A0054668
:105DF0004FF00109DDE700BFACAE00206C9401005C
:105E00007C94010008B5034608462BB1044A136090
:105E100000F03CFD002008BD6FF01500FBE700BF5F
:105E2000B402002010B5044C237813B9034809F0DC
:105E30007DFC0123237010BD86CB0020B808002014
:105E400010B504460B480DF059FD5CB1BFF35B8FF4
:105E5000094B53E8001F013943E80012002AF8D12A
:105E6000BFF35B8F05480AF04BFE0548BDE81040C4
:105E700009F05CBCA4AE0020A8AE0020F011002008
:105E8000B8080020064BBFF35B8F002253E8000FD9
:105E900043E800210029F9D1BFF35B8F704700BFB1
:105EA000A4AE002070B5FFF7EDFF084C084E054684
:105EB000B44200D370BD63685B792BB123685B6823
:105EC00013B12946204698471034F1E76C9401003D
:105ED0007C94010010B5044C044920460DF0D7F91C
:105EE000034B1C6010BD00BF98060020D09D010030
:105EF0009CAE00200E4A0F48002310B513700E4AC6
:105F000013600E4A4FF400411360FFF77BFFFFF769
:105F1000E1FF00F081F90A4B0A4918468B4200D391
:105F200010BD1A1A5C681211013222711033F5E7A4
:105F300087CB0020F9380100A4AE0020A8AE0020D5
:105F40006C9401007C94010001460022014800236A
:105F50000DF0BEB99806002001480DF055BA00BFFB
:105F600098060020024B014618680DF0A8BA00BF41
:105F70009CAE002001480DF0DDBA00BF980600205D
:105F80002DE9F041374B1B78002B68D0FFF7E4FF79
:105F9000044600285FD1344B344D1B68002B19DDBB
:105FA00012F09CFB4FF47A76A0FB063206FB01212F
:105FB000D5E90020DB0B43EA41439B1A4FEAD1317C
:105FC00040F2E93261EB0001934271F1000101D32B
:105FD000FFF768FFD5E9003213F57A7342F100024A
:105FE000C5E90032002C3AD0BDE8F041FFF7C2BF4E
:105FF0006B685B793BB121784B0717D52B6821463D
:106000001B682846984710354545F1D32046FFF7D1
:10601000A9FFBFF35B8F164B53E8001F013943E81C
:106020000012002AF8D1BFF35B8FB4E72046268820
:10603000C1F3C20700F09EFAC6F382160246002E94
:10604000DCD00028DADB01233946284600F08EF93F
:10605000B042D8D3D2E7074DDFF81C80D4E7002048
:10606000BDE8F08186CB0020A4AE0020E81100201E
:10607000A8AE00206C9401007C94010070B50D4D19
:10608000297861B90120FFF771FE0B4C0B4EB44229
:1060900006D3FFF775FF0028FBD101232B7070BDDD
:1060A00063685B791BB1236820469B68984710346E
:1060B000EDE700BF87CB00206C9401007C940100C9
:1060C00000212DE9F8430846FFF750FE044648B387
:1060D00040F267684FF0000903F0B6FD1A4B1B4A07
:1060E0001B58136033B11A4B1B68092B02DD19488A
:1060F00009F01CFB184F002544B12046FFF7D2FDE4
:10610000044618B94FF0FF384FF0FF39FFF738FF5A
:10611000064628B9B5B90F4842464B4609F03AFB46
:106120003546E9E74FF0FF384FF0FF39D4E72B68E9
:106130009B691BB100221146284698471035BD4285
:10614000F5D3E8E7054DFAE708000000A0AE00200F
:10615000A8AE0020B80800207C9401006C940100D7
:1061600013B518480DF0CAFB174B1B7873B1EFF34A
:106170001184402383F31288BFF36F8FFFF700FF72
:1061800084F31188BFF36F8F02B010BD0F4B1B68F3
:10619000002BF9D050B900220023CDE900230C4890
:1061A0004FF4004200230AF073FCEDE70928EBD11D
:1061B00007480AF0A5FC074802B0BDE8104009F006
:1061C000B5BA00BFA8AE002087CB0020A0AE00204B
:1061D000F0110020B808002010B5064B1B680446DB
:1061E00098472146A06004480DF0EFF8BDE8104044
:1061F000FFF7B6BFB402002098060020044A054B02
:106200009B1AB1EBD30F34BF52F831000020704716
:10621000749301006C940100084B094A09489B1AC9
:10622000DB080021994200D17047026822F0070282
:1062300042F0030240F8042B0131F3E76C940100B3
:1062400074930100D4060020F8B50B4F0B4BDB1BF9
:106250000646DD080024AC4203D14FF0FF3420464F
:10626000F8BD57F8340020B13146FBF76FF900282C
:10627000F5D00134EFE700BF749301006C94010086
:1062800000282DE9F047884615461F461DDADFF83D
:10629000A890254E4FF0000AA6EB09063609544691
:1062A000B24509F1100902D12046BDE8F08759F83E
:1062B0000C0C3B4600792A464146FFF7E1FF844239
:1062C00038BF04460AF1010AEAE7184B184AD21A05
:1062D000B5EBD20F26D203EBC5031C79BC4228BF15
:1062E0003C46144EC0B200EB400056F82530072261
:1062F000824023EA020304F0070282401343002194
:10630000032223FA02F000F00700814202F10302A7
:1063100038BF01461E2AF4D123F007030B4346F889
:106320002530C1E70024DCE77C9401007493010070
:106330006C940100D40600206C940100F8B5094D5E
:10634000094BED1A06460F46ED080024AC4200D377
:10635000F8BD002122B23B46304601340DF0EEFA82
:10636000A4B2F3E76C9401007493010070B141682A
:10637000097973B1002A17DBCBB20C4951F822001E
:1063800003EB4303D84000F0070070474FF0FF31A4
:10639000EFE707490748401AB2EBD00F3ABF01EBCD
:1063A000C20108791846704704207047D4060020BF
:1063B000749301006C9401002DE9F04F8FB004AF8D
:1063C000C1F34A26B8600D4690467B600C0D002E46
:1063D00065D04FF000090A234FF0040B07F1140AAF
:1063E000FE60C7E90799C7F824900093CDF808B07C
:1063F000CDF804A007F11C03F9684A464046FEF7B1
:1064000015FFB0F5006F034620D32948036813F049
:10641000060F17D06C468AB0D8F8041004AB254D8F
:10642000C3E9055140F2FF71D9611A464FF400717A
:106430001984214B42F8103F4FF412514B46FFF79D
:10644000BBFFA5462C37BD46BDE8F08FC0F30A065A
:1064500004F11700184420F0070080083B60FFF7A4
:1064600073FD66F35325044680B13B68134A00F17F
:106470001001C7E90839F961CDE901AB0A2300939E
:10648000F96807F11C034046FEF7D0FE66F353257A
:106490007B68B9682A4620460DF08CFAD2E704F1F1
:1064A000170020F007008008FFF74EFD0446EDE7D7
:1064B000FC0600206CB601000400000187390100D1
:1064C0002DE9F04F87B0DDE9127ADDE9106B054662
:1064D000884614469946DFB11021CDF800A03B460E
:1064E0005A460020CDF814A0FEF7ECFCB0F5006F82
:1064F00001460FD31D48036813F0060F32D01C4A23
:1065000040F2FF73022107B0BDE8F04F0DF0ABBAC7
:106510003946384604F0070305F00704E40044EA6E
:10652000831444EA402444EA065406F11700084460
:1065300020F0070080080391FFF706FD054640B1F3
:106540003FB10399CDF800A03B465A461030FEF704
:10655000B9FC4B4622464146284607B0BDE8F04FFD
:106560000DF028BA07B0BDE8F08F00BFFC06002090
:10657000ABB60100406820B1034BC01A40F38F0056
:1065800070474FF0FF307047D40600200EB403B5BB
:1065900003AB014653F8042B0448019303F0E6FCD7
:1065A00002B05DF804EB03B0704700BFC93A0100C8
:1065B000CA0605D48B064CBF02490349FFF7E6BF64
:1065C000704700BFC2BA0100E3B601002DE9F04FE9
:1065D00089B09846159B0693DDE916A39DF8509067
:1065E000189F059204460D460493B9F1000F00F080
:1065F000AE8007F4807307930DF09EF907F0020B4D
:106600000246002872D077492046FFF7BFFF0646B2
:10661000BBF1000F08D017F0440F69D172492A4628
:106620002046FFF7B3FF064407F0010353B16F4B59
:106630006F4953F829206F4B2046002A08BF1A469D
:10664000FFF7A4FF07F48073002B07F0080318BFBF
:106650004FF00008002B77D0674B684953F829208A
:106660002046FFF793FF0546059B2BB164491A4668
:106670002046FFF78BFF0544B8F1000F05D06149B4
:1066800042462046FFF782FF05445F483544069B9B
:106690001BB15E4922460CF06DFC049B002B00F000
:1066A0008C80049B102B28BF102339462046984627
:1066B000FFF77EFF0026B54250DC002633461AF86D
:1066C000032053492046FFF761FF0136102E4BD0BF
:1066D000710703D14F492046FFF758FF464533461F
:1066E000EDD34D492046FFF751FFEEE706468FE711
:1066F0004A4B1868002896D0494B4FF47A7B1B68A8
:10670000B5FBF3F54FF46163B5FBF0F100FB1155F8
:106710000BFB05F54FF03C0CB1FBF3F203FB121140
:10672000B5FBF0FEB1FBFCF300FB1E550CFB131197
:106730000BFB05F50091B5FBF0F53A49CDE901E514
:106740002046FFF723FF6EE707F008058CE7B8F156
:10675000010F0CBF2C4834484D4698E72D49204680
:10676000FFF714FF0136A6E7304920460026FFF761
:106770000DFF33461AF803202D49A2F120035F2BA9
:1067800028BF2E222046FFF701FF0136102E0DD024
:10679000720703D11F492046FFF7F8FEB045334684
:1067A000E8D81C492046FFF7F1FEEEE7049BB3EB67
:1067B0000803C24404937FF474AFB9F1000F0AD008
:1067C000FB0704D50B4A0A492046FFF7DFFE39468E
:1067D0002046FFF7EDFE204609B0BDE8F04F0DF072
:1067E00066B900BFC9C40100EBB60100E49D010019
:1067F000A5A70100E6B60100F89D010010B7010051
:1068000016B701001AB70100C93A01006D9F0000D8
:106810001FB7010027B7010025B70100B4AE002063
:10682000B0AE0020F4B60100FF3A010029B7010024
:10683000ADC4010073B542F20F738B4228BF0B4603
:1068400005680F4A0446052168460AF03FFC636864
:106850000C495B6806460B2228460DF01AF963685E
:106860003246694628465B680DF013F963680649AD
:106870005B681B2228460DF00CF902B070BD00BF0A
:1068800075A8010094D7010078D70100074A0021BC
:106890000123904206D8064A01B901231360054B33
:1068A0001860704740085B000121F2E740420F008A
:1068B000B0AE0020B4AE0020014B03600020704752
:1068C0000C9E010010B5044610F072FD034902460B
:1068D00020460DF070FB002010BD00BF62B7010024
:1068E00037B5134600220192044601AA58680A21CE
:1068F00001F0ECFD019D95B920EAE0744FF4004CE5
:10690000294640F2E7304FF47A720023E4FB0C0191
:10691000FAF702FE11F002FE284603B030BD2A4607
:10692000024920460DF063FB019DF5E78EB701009B
:1069300008B5034A03490DF03EFB002008BD00BF27
:106940007EB8010084B80100F7B51746002305465C
:1069500001AA0A21B868019301F0B8FD1749C6B22F
:1069600028460DF036FB019C44B1224614492846C6
:106970000DF03DFB019C204603B0F0BD042E09D96B
:106980001049324628460DF032FB28460DF064FBD4
:106990000124F0E77868FFF757FC021E07DA7A68EF
:1069A000094928460DF023FB6FF01504E3E7334651
:1069B00012B2214620460CF0C1FFDCE7AFB801005F
:1069C00015B901003CB9010053B9010007B5002316
:1069D0000090694604488DF8043009F067FE9DF880
:1069E000040003B05DF804FB973B010038B5044692
:1069F000EFF31185402383F31288BFF36F8F07F005
:106A0000BBFA024685F31188BFF36F8F0649204613
:106A10000DF0D1FA204605490DF0CDFA0448214683
:106A200009F05EFE002038BDE5B9010004BA01009E
:106A3000356A000070B58EB004460D46D0F8A060EF
:106A400011F080FC034603F0FFF8214A1158214A57
:106A50002148002B18BF1A460092204A23468C4238
:106A600018BF024628461E490DF0A5FAD4E90A23AC
:106A7000CDE90023284694F90E30A28919490DF07A
:106A80009AFA06A92022204609F008F9A36E1649B1
:106A9000024628460DF08FFA05A9204611F060FC49
:106AA000024628B1114928460DF085FA0EB070BD96
:106AB000059B6422F11A4A430091B2FBF6F20C499D
:106AC000CDE90162284632460DF075FAEEE700BFC7
:106AD000080000000EBA010027B701008ACF0100AC
